{
	"contracts/FirstContract.sol": {
		"FirstContract": {
			"abi": [
				{
					"inputs": [],
					"stateMutability": "nonpayable",
					"type": "constructor"
				},
				{
					"inputs": [
						{
							"internalType": "uint256",
							"name": "",
							"type": "uint256"
						},
						{
							"internalType": "string",
							"name": "",
							"type": "string"
						}
					],
					"name": "EmployeeData",
					"outputs": [
						{
							"internalType": "string",
							"name": "department",
							"type": "string"
						},
						{
							"internalType": "string",
							"name": "position",
							"type": "string"
						}
					],
					"stateMutability": "view",
					"type": "function"
				},
				{
					"inputs": [],
					"name": "WikiDLT",
					"outputs": [
						{
							"internalType": "string",
							"name": "department",
							"type": "string"
						},
						{
							"internalType": "string",
							"name": "position",
							"type": "string"
						}
					],
					"stateMutability": "view",
					"type": "function"
				},
				{
					"inputs": [
						{
							"internalType": "uint256",
							"name": "_id",
							"type": "uint256"
						},
						{
							"internalType": "string",
							"name": "_name",
							"type": "string"
						}
					],
					"name": "addDatabase",
					"outputs": [],
					"stateMutability": "nonpayable",
					"type": "function"
				},
				{
					"inputs": [
						{
							"internalType": "string",
							"name": "_name",
							"type": "string"
						},
						{
							"internalType": "string",
							"name": "_department",
							"type": "string"
						},
						{
							"internalType": "string",
							"name": "_position",
							"type": "string"
						}
					],
					"name": "addEmployee",
					"outputs": [],
					"stateMutability": "nonpayable",
					"type": "function"
				},
				{
					"inputs": [
						{
							"internalType": "uint256",
							"name": "",
							"type": "uint256"
						}
					],
					"name": "arr",
					"outputs": [
						{
							"internalType": "uint8",
							"name": "",
							"type": "uint8"
						}
					],
					"stateMutability": "view",
					"type": "function"
				},
				{
					"inputs": [
						{
							"internalType": "string",
							"name": "",
							"type": "string"
						}
					],
					"name": "company",
					"outputs": [
						{
							"internalType": "string",
							"name": "department",
							"type": "string"
						},
						{
							"internalType": "string",
							"name": "position",
							"type": "string"
						}
					],
					"stateMutability": "view",
					"type": "function"
				},
				{
					"inputs": [],
					"name": "loop",
					"outputs": [],
					"stateMutability": "nonpayable",
					"type": "function"
				},
				{
					"inputs": [
						{
							"internalType": "uint256",
							"name": "",
							"type": "uint256"
						}
					],
					"name": "names",
					"outputs": [
						{
							"internalType": "string",
							"name": "",
							"type": "string"
						}
					],
					"stateMutability": "view",
					"type": "function"
				}
			],
			"devdoc": {
				"kind": "dev",
				"methods": {},
				"version": 1
			},
			"evm": {
				"assembly": "    /* \"contracts/FirstContract.sol\":61:1258  contract FirstContract {... */\n  mstore(0x40, 0x80)\n    /* \"contracts/FirstContract.sol\":397:529  constructor() {... */\n  callvalue\n  dup1\n  iszero\n  tag_1\n  jumpi\n  0x00\n  dup1\n  revert\ntag_1:\n  pop\n    /* \"contracts/FirstContract.sol\":421:439  names[1] = \"Nitin\" */\n  mload(0x40)\n  dup1\n  0x40\n  add\n  0x40\n  mstore\n  dup1\n  0x05\n  dup2\n  mstore\n  0x20\n  add\n  0x4e6974696e000000000000000000000000000000000000000000000000000000\n  dup2\n  mstore\n  pop\n    /* \"contracts/FirstContract.sol\":421:426  names */\n  0x00\n    /* \"contracts/FirstContract.sol\":421:429  names[1] */\n  dup1\n    /* \"contracts/FirstContract.sol\":427:428  1 */\n  0x01\n    /* \"contracts/FirstContract.sol\":421:429  names[1] */\n  dup2\n  mstore\n  0x20\n  add\n  swap1\n  dup2\n  mstore\n  0x20\n  add\n  0x00\n  keccak256\n    /* \"contracts/FirstContract.sol\":421:439  names[1] = \"Nitin\" */\n  swap1\n  dup1\n  mload\n  swap1\n  0x20\n  add\n  swap1\n  tag_4\n  swap3\n  swap2\n  swap1\n  tag_5\n  jump\t// in\ntag_4:\n  pop\n    /* \"contracts/FirstContract.sol\":449:466  names[2] = \"Amit\" */\n  mload(0x40)\n  dup1\n  0x40\n  add\n  0x40\n  mstore\n  dup1\n  0x04\n  dup2\n  mstore\n  0x20\n  add\n  0x416d697400000000000000000000000000000000000000000000000000000000\n  dup2\n  mstore\n  pop\n    /* \"contracts/FirstContract.sol\":449:454  names */\n  0x00\n    /* \"contracts/FirstContract.sol\":449:457  names[2] */\n  dup1\n    /* \"contracts/FirstContract.sol\":455:456  2 */\n  0x02\n    /* \"contracts/FirstContract.sol\":449:457  names[2] */\n  dup2\n  mstore\n  0x20\n  add\n  swap1\n  dup2\n  mstore\n  0x20\n  add\n  0x00\n  keccak256\n    /* \"contracts/FirstContract.sol\":449:466  names[2] = \"Amit\" */\n  swap1\n  dup1\n  mload\n  swap1\n  0x20\n  add\n  swap1\n  tag_6\n  swap3\n  swap2\n  swap1\n  tag_5\n  jump\t// in\ntag_6:\n  pop\n    /* \"contracts/FirstContract.sol\":476:494  names[3] = \"Tejas\" */\n  mload(0x40)\n  dup1\n  0x40\n  add\n  0x40\n  mstore\n  dup1\n  0x05\n  dup2\n  mstore\n  0x20\n  add\n  0x54656a6173000000000000000000000000000000000000000000000000000000\n  dup2\n  mstore\n  pop\n    /* \"contracts/FirstContract.sol\":476:481  names */\n  0x00\n    /* \"contracts/FirstContract.sol\":476:484  names[3] */\n  dup1\n    /* \"contracts/FirstContract.sol\":482:483  3 */\n  0x03\n    /* \"contracts/FirstContract.sol\":476:484  names[3] */\n  dup2\n  mstore\n  0x20\n  add\n  swap1\n  dup2\n  mstore\n  0x20\n  add\n  0x00\n  keccak256\n    /* \"contracts/FirstContract.sol\":476:494  names[3] = \"Tejas\" */\n  swap1\n  dup1\n  mload\n  swap1\n  0x20\n  add\n  swap1\n  tag_7\n  swap3\n  swap2\n  swap1\n  tag_5\n  jump\t// in\ntag_7:\n  pop\n    /* \"contracts/FirstContract.sol\":504:522  names[4] = \"Aryan\" */\n  mload(0x40)\n  dup1\n  0x40\n  add\n  0x40\n  mstore\n  dup1\n  0x05\n  dup2\n  mstore\n  0x20\n  add\n  0x417279616e000000000000000000000000000000000000000000000000000000\n  dup2\n  mstore\n  pop\n    /* \"contracts/FirstContract.sol\":504:509  names */\n  0x00\n    /* \"contracts/FirstContract.sol\":504:512  names[4] */\n  dup1\n    /* \"contracts/FirstContract.sol\":510:511  4 */\n  0x04\n    /* \"contracts/FirstContract.sol\":504:512  names[4] */\n  dup2\n  mstore\n  0x20\n  add\n  swap1\n  dup2\n  mstore\n  0x20\n  add\n  0x00\n  keccak256\n    /* \"contracts/FirstContract.sol\":504:522  names[4] = \"Aryan\" */\n  swap1\n  dup1\n  mload\n  swap1\n  0x20\n  add\n  swap1\n  tag_8\n  swap3\n  swap2\n  swap1\n  tag_5\n  jump\t// in\ntag_8:\n  pop\n    /* \"contracts/FirstContract.sol\":61:1258  contract FirstContract {... */\n  jump(tag_9)\ntag_5:\n  dup3\n  dup1\n  sload\n  tag_10\n  swap1\n  tag_11\n  jump\t// in\ntag_10:\n  swap1\n  0x00\n  mstore\n  keccak256(0x00, 0x20)\n  swap1\n  0x1f\n  add\n  0x20\n  swap1\n  div\n  dup2\n  add\n  swap3\n  dup3\n  tag_13\n  jumpi\n  0x00\n  dup6\n  sstore\n  jump(tag_12)\ntag_13:\n  dup3\n  0x1f\n  lt\n  tag_14\n  jumpi\n  dup1\n  mload\n  not(0xff)\n  and\n  dup4\n  dup1\n  add\n  or\n  dup6\n  sstore\n  jump(tag_12)\ntag_14:\n  dup3\n  dup1\n  add\n  0x01\n  add\n  dup6\n  sstore\n  dup3\n  iszero\n  tag_12\n  jumpi\n  swap2\n  dup3\n  add\ntag_15:\n  dup3\n  dup2\n  gt\n  iszero\n  tag_16\n  jumpi\n  dup3\n  mload\n  dup3\n  sstore\n  swap2\n  0x20\n  add\n  swap2\n  swap1\n  0x01\n  add\n  swap1\n  jump(tag_15)\ntag_16:\ntag_12:\n  pop\n  swap1\n  pop\n  tag_17\n  swap2\n  swap1\n  tag_18\n  jump\t// in\ntag_17:\n  pop\n  swap1\n  jump\t// out\ntag_18:\ntag_19:\n  dup1\n  dup3\n  gt\n  iszero\n  tag_20\n  jumpi\n  0x00\n  dup2\n  0x00\n  swap1\n  sstore\n  pop\n  0x01\n  add\n  jump(tag_19)\ntag_20:\n  pop\n  swap1\n  jump\t// out\n    /* \"#utility.yul\":7:327   */\ntag_11:\n    /* \"#utility.yul\":51:57   */\n  0x00\n    /* \"#utility.yul\":88:89   */\n  0x02\n    /* \"#utility.yul\":82:86   */\n  dup3\n    /* \"#utility.yul\":78:90   */\n  div\n    /* \"#utility.yul\":68:90   */\n  swap1\n  pop\n    /* \"#utility.yul\":135:136   */\n  0x01\n    /* \"#utility.yul\":129:133   */\n  dup3\n    /* \"#utility.yul\":125:137   */\n  and\n    /* \"#utility.yul\":156:174   */\n  dup1\n    /* \"#utility.yul\":146:227   */\n  tag_23\n  jumpi\n    /* \"#utility.yul\":212:216   */\n  0x7f\n    /* \"#utility.yul\":204:210   */\n  dup3\n    /* \"#utility.yul\":200:217   */\n  and\n    /* \"#utility.yul\":190:217   */\n  swap2\n  pop\n    /* \"#utility.yul\":146:227   */\ntag_23:\n    /* \"#utility.yul\":274:276   */\n  0x20\n    /* \"#utility.yul\":266:272   */\n  dup3\n    /* \"#utility.yul\":263:277   */\n  lt\n    /* \"#utility.yul\":243:261   */\n  dup2\n    /* \"#utility.yul\":240:278   */\n  eq\n    /* \"#utility.yul\":237:321   */\n  iszero\n  tag_24\n  jumpi\n    /* \"#utility.yul\":293:311   */\n  tag_25\n  tag_26\n  jump\t// in\ntag_25:\n    /* \"#utility.yul\":237:321   */\ntag_24:\n    /* \"#utility.yul\":58:327   */\n  pop\n    /* \"#utility.yul\":7:327   */\n  swap2\n  swap1\n  pop\n  jump\t// out\n    /* \"#utility.yul\":333:513   */\ntag_26:\n    /* \"#utility.yul\":381:458   */\n  0x4e487b7100000000000000000000000000000000000000000000000000000000\n    /* \"#utility.yul\":378:379   */\n  0x00\n    /* \"#utility.yul\":371:459   */\n  mstore\n    /* \"#utility.yul\":478:482   */\n  0x22\n    /* \"#utility.yul\":475:476   */\n  0x04\n    /* \"#utility.yul\":468:483   */\n  mstore\n    /* \"#utility.yul\":502:506   */\n  0x24\n    /* \"#utility.yul\":499:500   */\n  0x00\n    /* \"#utility.yul\":492:507   */\n  revert\n    /* \"contracts/FirstContract.sol\":61:1258  contract FirstContract {... */\ntag_9:\n  dataSize(sub_0)\n  dup1\n  dataOffset(sub_0)\n  0x00\n  codecopy\n  0x00\n  return\nstop\n\nsub_0: assembly {\n        /* \"contracts/FirstContract.sol\":61:1258  contract FirstContract {... */\n      mstore(0x40, 0x80)\n      callvalue\n      dup1\n      iszero\n      tag_1\n      jumpi\n      0x00\n      dup1\n      revert\n    tag_1:\n      pop\n      jumpi(tag_2, lt(calldatasize, 0x04))\n      shr(0xe0, calldataload(0x00))\n      dup1\n      0x7ae431fd\n      gt\n      tag_11\n      jumpi\n      dup1\n      0x7ae431fd\n      eq\n      tag_7\n      jumpi\n      dup1\n      0xa92100cb\n      eq\n      tag_8\n      jumpi\n      dup1\n      0xcfbdc519\n      eq\n      tag_9\n      jumpi\n      dup1\n      0xef5abff7\n      eq\n      tag_10\n      jumpi\n      jump(tag_2)\n    tag_11:\n      dup1\n      0x0acf70ac\n      eq\n      tag_3\n      jumpi\n      dup1\n      0x0c1770a4\n      eq\n      tag_4\n      jumpi\n      dup1\n      0x4622ab03\n      eq\n      tag_5\n      jumpi\n      dup1\n      0x71e5ee5f\n      eq\n      tag_6\n      jumpi\n    tag_2:\n      0x00\n      dup1\n      revert\n        /* \"contracts/FirstContract.sol\":536:844  function addEmployee(... */\n    tag_3:\n      tag_12\n      0x04\n      dup1\n      calldatasize\n      sub\n      dup2\n      add\n      swap1\n      tag_13\n      swap2\n      swap1\n      tag_14\n      jump\t// in\n    tag_13:\n      tag_15\n      jump\t// in\n    tag_12:\n      stop\n        /* \"contracts/FirstContract.sol\":258:320  mapping(uint => mapping(string => Webmob)) public EmployeeData */\n    tag_4:\n      tag_16\n      0x04\n      dup1\n      calldatasize\n      sub\n      dup2\n      add\n      swap1\n      tag_17\n      swap2\n      swap1\n      tag_18\n      jump\t// in\n    tag_17:\n      tag_19\n      jump\t// in\n    tag_16:\n      mload(0x40)\n      tag_20\n      swap3\n      swap2\n      swap1\n      tag_21\n      jump\t// in\n    tag_20:\n      mload(0x40)\n      dup1\n      swap2\n      sub\n      swap1\n      return\n        /* \"contracts/FirstContract.sol\":170:206  mapping(uint => string) public names */\n    tag_5:\n      tag_22\n      0x04\n      dup1\n      calldatasize\n      sub\n      dup2\n      add\n      swap1\n      tag_23\n      swap2\n      swap1\n      tag_24\n      jump\t// in\n    tag_23:\n      tag_25\n      jump\t// in\n    tag_22:\n      mload(0x40)\n      tag_26\n      swap2\n      swap1\n      tag_27\n      jump\t// in\n    tag_26:\n      mload(0x40)\n      dup1\n      swap2\n      sub\n      swap1\n      return\n        /* \"contracts/FirstContract.sol\":343:362  uint8[3] public arr */\n    tag_6:\n      tag_28\n      0x04\n      dup1\n      calldatasize\n      sub\n      dup2\n      add\n      swap1\n      tag_29\n      swap2\n      swap1\n      tag_24\n      jump\t// in\n    tag_29:\n      tag_30\n      jump\t// in\n    tag_28:\n      mload(0x40)\n      tag_31\n      swap2\n      swap1\n      tag_32\n      jump\t// in\n    tag_31:\n      mload(0x40)\n      dup1\n      swap2\n      sub\n      swap1\n      return\n        /* \"contracts/FirstContract.sol\":369:390  Webmob public WikiDLT */\n    tag_7:\n      tag_33\n      tag_34\n      jump\t// in\n    tag_33:\n      mload(0x40)\n      tag_35\n      swap3\n      swap2\n      swap1\n      tag_21\n      jump\t// in\n    tag_35:\n      mload(0x40)\n      dup1\n      swap2\n      sub\n      swap1\n      return\n        /* \"contracts/FirstContract.sol\":1124:1254  function loop() public{... */\n    tag_8:\n      tag_36\n      tag_37\n      jump\t// in\n    tag_36:\n      stop\n        /* \"contracts/FirstContract.sol\":212:252  mapping(string => Webmob) public company */\n    tag_9:\n      tag_38\n      0x04\n      dup1\n      calldatasize\n      sub\n      dup2\n      add\n      swap1\n      tag_39\n      swap2\n      swap1\n      tag_40\n      jump\t// in\n    tag_39:\n      tag_41\n      jump\t// in\n    tag_38:\n      mload(0x40)\n      tag_42\n      swap3\n      swap2\n      swap1\n      tag_21\n      jump\t// in\n    tag_42:\n      mload(0x40)\n      dup1\n      swap2\n      sub\n      swap1\n      return\n        /* \"contracts/FirstContract.sol\":850:1118  function addDatabase( uint _id, string memory _name ) public {... */\n    tag_10:\n      tag_43\n      0x04\n      dup1\n      calldatasize\n      sub\n      dup2\n      add\n      swap1\n      tag_44\n      swap2\n      swap1\n      tag_18\n      jump\t// in\n    tag_44:\n      tag_45\n      jump\t// in\n    tag_43:\n      stop\n        /* \"contracts/FirstContract.sol\":536:844  function addEmployee(... */\n    tag_15:\n        /* \"contracts/FirstContract.sol\":684:771  Webmob({... */\n      mload(0x40)\n      dup1\n      0x40\n      add\n      0x40\n      mstore\n      dup1\n        /* \"contracts/FirstContract.sol\":716:727  _department */\n      dup4\n        /* \"contracts/FirstContract.sol\":684:771  Webmob({... */\n      dup2\n      mstore\n      0x20\n      add\n        /* \"contracts/FirstContract.sol\":751:760  _position */\n      dup3\n        /* \"contracts/FirstContract.sol\":684:771  Webmob({... */\n      dup2\n      mstore\n      pop\n        /* \"contracts/FirstContract.sol\":674:681  WikiDLT */\n      0x05\n        /* \"contracts/FirstContract.sol\":674:771  WikiDLT = Webmob({... */\n      0x00\n      dup3\n      add\n      mload\n      dup2\n      0x00\n      add\n      swap1\n      dup1\n      mload\n      swap1\n      0x20\n      add\n      swap1\n      tag_47\n      swap3\n      swap2\n      swap1\n      tag_48\n      jump\t// in\n    tag_47:\n      pop\n      0x20\n      dup3\n      add\n      mload\n      dup2\n      0x01\n      add\n      swap1\n      dup1\n      mload\n      swap1\n      0x20\n      add\n      swap1\n      tag_49\n      swap3\n      swap2\n      swap1\n      tag_48\n      jump\t// in\n    tag_49:\n      pop\n      swap1\n      pop\n      pop\n        /* \"contracts/FirstContract.sol\":807:837  Webmob(_department, _position) */\n      mload(0x40)\n      dup1\n      0x40\n      add\n      0x40\n      mstore\n      dup1\n        /* \"contracts/FirstContract.sol\":814:825  _department */\n      dup4\n        /* \"contracts/FirstContract.sol\":807:837  Webmob(_department, _position) */\n      dup2\n      mstore\n      0x20\n      add\n        /* \"contracts/FirstContract.sol\":827:836  _position */\n      dup3\n        /* \"contracts/FirstContract.sol\":807:837  Webmob(_department, _position) */\n      dup2\n      mstore\n      pop\n        /* \"contracts/FirstContract.sol\":790:797  company */\n      0x01\n        /* \"contracts/FirstContract.sol\":798:803  _name */\n      dup5\n        /* \"contracts/FirstContract.sol\":790:804  company[_name] */\n      mload(0x40)\n      tag_50\n      swap2\n      swap1\n      tag_51\n      jump\t// in\n    tag_50:\n      swap1\n      dup2\n      mstore\n      0x20\n      add\n      mload(0x40)\n      dup1\n      swap2\n      sub\n      swap1\n      keccak256\n        /* \"contracts/FirstContract.sol\":790:837  company[_name] = Webmob(_department, _position) */\n      0x00\n      dup3\n      add\n      mload\n      dup2\n      0x00\n      add\n      swap1\n      dup1\n      mload\n      swap1\n      0x20\n      add\n      swap1\n      tag_52\n      swap3\n      swap2\n      swap1\n      tag_48\n      jump\t// in\n    tag_52:\n      pop\n      0x20\n      dup3\n      add\n      mload\n      dup2\n      0x01\n      add\n      swap1\n      dup1\n      mload\n      swap1\n      0x20\n      add\n      swap1\n      tag_53\n      swap3\n      swap2\n      swap1\n      tag_48\n      jump\t// in\n    tag_53:\n      pop\n      swap1\n      pop\n      pop\n        /* \"contracts/FirstContract.sol\":536:844  function addEmployee(... */\n      pop\n      pop\n      pop\n      jump\t// out\n        /* \"contracts/FirstContract.sol\":258:320  mapping(uint => mapping(string => Webmob)) public EmployeeData */\n    tag_19:\n      mstore(0x20, 0x02)\n      dup2\n      0x00\n      mstore\n      keccak256(0x00, 0x40)\n      dup2\n      dup1\n      mload\n      0x20\n      dup2\n      add\n      dup3\n      add\n      dup1\n      mload\n      dup5\n      dup3\n      mstore\n      0x20\n      dup4\n      add\n      0x20\n      dup6\n      add\n      keccak256\n      dup2\n      dup4\n      mstore\n      dup1\n      swap6\n      pop\n      pop\n      pop\n      pop\n      pop\n      pop\n      0x00\n      swap2\n      pop\n      swap2\n      pop\n      pop\n      dup1\n      0x00\n      add\n      dup1\n      sload\n      tag_54\n      swap1\n      tag_55\n      jump\t// in\n    tag_54:\n      dup1\n      0x1f\n      add\n      0x20\n      dup1\n      swap2\n      div\n      mul\n      0x20\n      add\n      mload(0x40)\n      swap1\n      dup2\n      add\n      0x40\n      mstore\n      dup1\n      swap3\n      swap2\n      swap1\n      dup2\n      dup2\n      mstore\n      0x20\n      add\n      dup3\n      dup1\n      sload\n      tag_56\n      swap1\n      tag_55\n      jump\t// in\n    tag_56:\n      dup1\n      iszero\n      tag_57\n      jumpi\n      dup1\n      0x1f\n      lt\n      tag_58\n      jumpi\n      0x0100\n      dup1\n      dup4\n      sload\n      div\n      mul\n      dup4\n      mstore\n      swap2\n      0x20\n      add\n      swap2\n      jump(tag_57)\n    tag_58:\n      dup3\n      add\n      swap2\n      swap1\n      0x00\n      mstore\n      keccak256(0x00, 0x20)\n      swap1\n    tag_59:\n      dup2\n      sload\n      dup2\n      mstore\n      swap1\n      0x01\n      add\n      swap1\n      0x20\n      add\n      dup1\n      dup4\n      gt\n      tag_59\n      jumpi\n      dup3\n      swap1\n      sub\n      0x1f\n      and\n      dup3\n      add\n      swap2\n    tag_57:\n      pop\n      pop\n      pop\n      pop\n      pop\n      swap1\n      dup1\n      0x01\n      add\n      dup1\n      sload\n      tag_60\n      swap1\n      tag_55\n      jump\t// in\n    tag_60:\n      dup1\n      0x1f\n      add\n      0x20\n      dup1\n      swap2\n      div\n      mul\n      0x20\n      add\n      mload(0x40)\n      swap1\n      dup2\n      add\n      0x40\n      mstore\n      dup1\n      swap3\n      swap2\n      swap1\n      dup2\n      dup2\n      mstore\n      0x20\n      add\n      dup3\n      dup1\n      sload\n      tag_61\n      swap1\n      tag_55\n      jump\t// in\n    tag_61:\n      dup1\n      iszero\n      tag_62\n      jumpi\n      dup1\n      0x1f\n      lt\n      tag_63\n      jumpi\n      0x0100\n      dup1\n      dup4\n      sload\n      div\n      mul\n      dup4\n      mstore\n      swap2\n      0x20\n      add\n      swap2\n      jump(tag_62)\n    tag_63:\n      dup3\n      add\n      swap2\n      swap1\n      0x00\n      mstore\n      keccak256(0x00, 0x20)\n      swap1\n    tag_64:\n      dup2\n      sload\n      dup2\n      mstore\n      swap1\n      0x01\n      add\n      swap1\n      0x20\n      add\n      dup1\n      dup4\n      gt\n      tag_64\n      jumpi\n      dup3\n      swap1\n      sub\n      0x1f\n      and\n      dup3\n      add\n      swap2\n    tag_62:\n      pop\n      pop\n      pop\n      pop\n      pop\n      swap1\n      pop\n      dup3\n      jump\t// out\n        /* \"contracts/FirstContract.sol\":170:206  mapping(uint => string) public names */\n    tag_25:\n      mstore(0x20, 0x00)\n      dup1\n      0x00\n      mstore\n      keccak256(0x00, 0x40)\n      0x00\n      swap2\n      pop\n      swap1\n      pop\n      dup1\n      sload\n      tag_65\n      swap1\n      tag_55\n      jump\t// in\n    tag_65:\n      dup1\n      0x1f\n      add\n      0x20\n      dup1\n      swap2\n      div\n      mul\n      0x20\n      add\n      mload(0x40)\n      swap1\n      dup2\n      add\n      0x40\n      mstore\n      dup1\n      swap3\n      swap2\n      swap1\n      dup2\n      dup2\n      mstore\n      0x20\n      add\n      dup3\n      dup1\n      sload\n      tag_66\n      swap1\n      tag_55\n      jump\t// in\n    tag_66:\n      dup1\n      iszero\n      tag_67\n      jumpi\n      dup1\n      0x1f\n      lt\n      tag_68\n      jumpi\n      0x0100\n      dup1\n      dup4\n      sload\n      div\n      mul\n      dup4\n      mstore\n      swap2\n      0x20\n      add\n      swap2\n      jump(tag_67)\n    tag_68:\n      dup3\n      add\n      swap2\n      swap1\n      0x00\n      mstore\n      keccak256(0x00, 0x20)\n      swap1\n    tag_69:\n      dup2\n      sload\n      dup2\n      mstore\n      swap1\n      0x01\n      add\n      swap1\n      0x20\n      add\n      dup1\n      dup4\n      gt\n      tag_69\n      jumpi\n      dup3\n      swap1\n      sub\n      0x1f\n      and\n      dup3\n      add\n      swap2\n    tag_67:\n      pop\n      pop\n      pop\n      pop\n      pop\n      dup2\n      jump\t// out\n        /* \"contracts/FirstContract.sol\":343:362  uint8[3] public arr */\n    tag_30:\n      0x04\n      dup2\n      0x03\n      dup2\n      lt\n      tag_70\n      jumpi\n      0x00\n      dup1\n      revert\n    tag_70:\n      0x20\n      swap2\n      dup3\n      dup3\n      div\n      add\n      swap2\n      swap1\n      mod\n      swap2\n      pop\n      sload\n      swap1\n      0x0100\n      exp\n      swap1\n      div\n      0xff\n      and\n      dup2\n      jump\t// out\n        /* \"contracts/FirstContract.sol\":369:390  Webmob public WikiDLT */\n    tag_34:\n      0x05\n      dup1\n      0x00\n      add\n      dup1\n      sload\n      tag_72\n      swap1\n      tag_55\n      jump\t// in\n    tag_72:\n      dup1\n      0x1f\n      add\n      0x20\n      dup1\n      swap2\n      div\n      mul\n      0x20\n      add\n      mload(0x40)\n      swap1\n      dup2\n      add\n      0x40\n      mstore\n      dup1\n      swap3\n      swap2\n      swap1\n      dup2\n      dup2\n      mstore\n      0x20\n      add\n      dup3\n      dup1\n      sload\n      tag_73\n      swap1\n      tag_55\n      jump\t// in\n    tag_73:\n      dup1\n      iszero\n      tag_74\n      jumpi\n      dup1\n      0x1f\n      lt\n      tag_75\n      jumpi\n      0x0100\n      dup1\n      dup4\n      sload\n      div\n      mul\n      dup4\n      mstore\n      swap2\n      0x20\n      add\n      swap2\n      jump(tag_74)\n    tag_75:\n      dup3\n      add\n      swap2\n      swap1\n      0x00\n      mstore\n      keccak256(0x00, 0x20)\n      swap1\n    tag_76:\n      dup2\n      sload\n      dup2\n      mstore\n      swap1\n      0x01\n      add\n      swap1\n      0x20\n      add\n      dup1\n      dup4\n      gt\n      tag_76\n      jumpi\n      dup3\n      swap1\n      sub\n      0x1f\n      and\n      dup3\n      add\n      swap2\n    tag_74:\n      pop\n      pop\n      pop\n      pop\n      pop\n      swap1\n      dup1\n      0x01\n      add\n      dup1\n      sload\n      tag_77\n      swap1\n      tag_55\n      jump\t// in\n    tag_77:\n      dup1\n      0x1f\n      add\n      0x20\n      dup1\n      swap2\n      div\n      mul\n      0x20\n      add\n      mload(0x40)\n      swap1\n      dup2\n      add\n      0x40\n      mstore\n      dup1\n      swap3\n      swap2\n      swap1\n      dup2\n      dup2\n      mstore\n      0x20\n      add\n      dup3\n      dup1\n      sload\n      tag_78\n      swap1\n      tag_55\n      jump\t// in\n    tag_78:\n      dup1\n      iszero\n      tag_79\n      jumpi\n      dup1\n      0x1f\n      lt\n      tag_80\n      jumpi\n      0x0100\n      dup1\n      dup4\n      sload\n      div\n      mul\n      dup4\n      mstore\n      swap2\n      0x20\n      add\n      swap2\n      jump(tag_79)\n    tag_80:\n      dup3\n      add\n      swap2\n      swap1\n      0x00\n      mstore\n      keccak256(0x00, 0x20)\n      swap1\n    tag_81:\n      dup2\n      sload\n      dup2\n      mstore\n      swap1\n      0x01\n      add\n      swap1\n      0x20\n      add\n      dup1\n      dup4\n      gt\n      tag_81\n      jumpi\n      dup3\n      swap1\n      sub\n      0x1f\n      and\n      dup3\n      add\n      swap2\n    tag_79:\n      pop\n      pop\n      pop\n      pop\n      pop\n      swap1\n      pop\n      dup3\n      jump\t// out\n        /* \"contracts/FirstContract.sol\":1124:1254  function loop() public{... */\n    tag_37:\n        /* \"contracts/FirstContract.sol\":1156:1248  do{... */\n    tag_83:\n        /* \"contracts/FirstContract.sol\":1185:1190  count */\n      0x03\n      0x00\n      swap1\n      sload\n      swap1\n      0x0100\n      exp\n      swap1\n      div\n      0xff\n      and\n        /* \"contracts/FirstContract.sol\":1172:1175  arr */\n      0x04\n        /* \"contracts/FirstContract.sol\":1176:1181  count */\n      0x03\n      0x00\n      swap1\n      sload\n      swap1\n      0x0100\n      exp\n      swap1\n      div\n      0xff\n      and\n        /* \"contracts/FirstContract.sol\":1172:1182  arr[count] */\n      0xff\n      and\n      0x03\n      dup2\n      lt\n      tag_86\n      jumpi\n      tag_87\n      tag_88\n      jump\t// in\n    tag_87:\n    tag_86:\n      0x20\n      swap2\n      dup3\n      dup3\n      div\n      add\n      swap2\n      swap1\n      mod\n        /* \"contracts/FirstContract.sol\":1172:1190  arr[count] = count */\n      0x0100\n      exp\n      dup2\n      sload\n      dup2\n      0xff\n      mul\n      not\n      and\n      swap1\n      dup4\n      0xff\n      and\n      mul\n      or\n      swap1\n      sstore\n      pop\n        /* \"contracts/FirstContract.sol\":1204:1209  count */\n      0x03\n      0x00\n        /* \"contracts/FirstContract.sol\":1204:1211  count++ */\n      dup2\n      dup2\n      swap1\n      sload\n      swap1\n      0x0100\n      exp\n      swap1\n      div\n      0xff\n      and\n      dup1\n      swap3\n      swap2\n      swap1\n      tag_90\n      swap1\n      tag_91\n      jump\t// in\n    tag_90:\n      swap2\n      swap1\n      0x0100\n      exp\n      dup2\n      sload\n      dup2\n      0xff\n      mul\n      not\n      and\n      swap1\n      dup4\n      0xff\n      and\n      mul\n      or\n      swap1\n      sstore\n      pop\n      pop\n        /* \"contracts/FirstContract.sol\":1236:1246  arr.length */\n      0x03\n        /* \"contracts/FirstContract.sol\":1228:1233  count */\n      dup1\n      0x00\n      swap1\n      sload\n      swap1\n      0x0100\n      exp\n      swap1\n      div\n      0xff\n      and\n        /* \"contracts/FirstContract.sol\":1228:1246  count < arr.length */\n      0xff\n      and\n      lt\n        /* \"contracts/FirstContract.sol\":1156:1248  do{... */\n      tag_83\n      jumpi\n        /* \"contracts/FirstContract.sol\":1124:1254  function loop() public{... */\n      jump\t// out\n        /* \"contracts/FirstContract.sol\":212:252  mapping(string => Webmob) public company */\n    tag_41:\n      0x01\n      dup2\n      dup1\n      mload\n      0x20\n      dup2\n      add\n      dup3\n      add\n      dup1\n      mload\n      dup5\n      dup3\n      mstore\n      0x20\n      dup4\n      add\n      0x20\n      dup6\n      add\n      keccak256\n      dup2\n      dup4\n      mstore\n      dup1\n      swap6\n      pop\n      pop\n      pop\n      pop\n      pop\n      pop\n      0x00\n      swap2\n      pop\n      swap1\n      pop\n      dup1\n      0x00\n      add\n      dup1\n      sload\n      tag_92\n      swap1\n      tag_55\n      jump\t// in\n    tag_92:\n      dup1\n      0x1f\n      add\n      0x20\n      dup1\n      swap2\n      div\n      mul\n      0x20\n      add\n      mload(0x40)\n      swap1\n      dup2\n      add\n      0x40\n      mstore\n      dup1\n      swap3\n      swap2\n      swap1\n      dup2\n      dup2\n      mstore\n      0x20\n      add\n      dup3\n      dup1\n      sload\n      tag_93\n      swap1\n      tag_55\n      jump\t// in\n    tag_93:\n      dup1\n      iszero\n      tag_94\n      jumpi\n      dup1\n      0x1f\n      lt\n      tag_95\n      jumpi\n      0x0100\n      dup1\n      dup4\n      sload\n      div\n      mul\n      dup4\n      mstore\n      swap2\n      0x20\n      add\n      swap2\n      jump(tag_94)\n    tag_95:\n      dup3\n      add\n      swap2\n      swap1\n      0x00\n      mstore\n      keccak256(0x00, 0x20)\n      swap1\n    tag_96:\n      dup2\n      sload\n      dup2\n      mstore\n      swap1\n      0x01\n      add\n      swap1\n      0x20\n      add\n      dup1\n      dup4\n      gt\n      tag_96\n      jumpi\n      dup3\n      swap1\n      sub\n      0x1f\n      and\n      dup3\n      add\n      swap2\n    tag_94:\n      pop\n      pop\n      pop\n      pop\n      pop\n      swap1\n      dup1\n      0x01\n      add\n      dup1\n      sload\n      tag_97\n      swap1\n      tag_55\n      jump\t// in\n    tag_97:\n      dup1\n      0x1f\n      add\n      0x20\n      dup1\n      swap2\n      div\n      mul\n      0x20\n      add\n      mload(0x40)\n      swap1\n      dup2\n      add\n      0x40\n      mstore\n      dup1\n      swap3\n      swap2\n      swap1\n      dup2\n      dup2\n      mstore\n      0x20\n      add\n      dup3\n      dup1\n      sload\n      tag_98\n      swap1\n      tag_55\n      jump\t// in\n    tag_98:\n      dup1\n      iszero\n      tag_99\n      jumpi\n      dup1\n      0x1f\n      lt\n      tag_100\n      jumpi\n      0x0100\n      dup1\n      dup4\n      sload\n      div\n      mul\n      dup4\n      mstore\n      swap2\n      0x20\n      add\n      swap2\n      jump(tag_99)\n    tag_100:\n      dup3\n      add\n      swap2\n      swap1\n      0x00\n      mstore\n      keccak256(0x00, 0x20)\n      swap1\n    tag_101:\n      dup2\n      sload\n      dup2\n      mstore\n      swap1\n      0x01\n      add\n      swap1\n      0x20\n      add\n      dup1\n      dup4\n      gt\n      tag_101\n      jumpi\n      dup3\n      swap1\n      sub\n      0x1f\n      and\n      dup3\n      add\n      swap2\n    tag_99:\n      pop\n      pop\n      pop\n      pop\n      pop\n      swap1\n      pop\n      dup3\n      jump\t// out\n        /* \"contracts/FirstContract.sol\":850:1118  function addDatabase( uint _id, string memory _name ) public {... */\n    tag_45:\n        /* \"contracts/FirstContract.sol\":930:955  string memory _department */\n      0x00\n        /* \"contracts/FirstContract.sol\":958:965  company */\n      0x01\n        /* \"contracts/FirstContract.sol\":966:971  _name */\n      dup3\n        /* \"contracts/FirstContract.sol\":958:972  company[_name] */\n      mload(0x40)\n      tag_103\n      swap2\n      swap1\n      tag_51\n      jump\t// in\n    tag_103:\n      swap1\n      dup2\n      mstore\n      0x20\n      add\n      mload(0x40)\n      dup1\n      swap2\n      sub\n      swap1\n      keccak256\n        /* \"contracts/FirstContract.sol\":958:983  company[_name].department */\n      0x00\n      add\n        /* \"contracts/FirstContract.sol\":930:983  string memory _department = company[_name].department */\n      dup1\n      sload\n      tag_104\n      swap1\n      tag_55\n      jump\t// in\n    tag_104:\n      dup1\n      0x1f\n      add\n      0x20\n      dup1\n      swap2\n      div\n      mul\n      0x20\n      add\n      mload(0x40)\n      swap1\n      dup2\n      add\n      0x40\n      mstore\n      dup1\n      swap3\n      swap2\n      swap1\n      dup2\n      dup2\n      mstore\n      0x20\n      add\n      dup3\n      dup1\n      sload\n      tag_105\n      swap1\n      tag_55\n      jump\t// in\n    tag_105:\n      dup1\n      iszero\n      tag_106\n      jumpi\n      dup1\n      0x1f\n      lt\n      tag_107\n      jumpi\n      0x0100\n      dup1\n      dup4\n      sload\n      div\n      mul\n      dup4\n      mstore\n      swap2\n      0x20\n      add\n      swap2\n      jump(tag_106)\n    tag_107:\n      dup3\n      add\n      swap2\n      swap1\n      0x00\n      mstore\n      keccak256(0x00, 0x20)\n      swap1\n    tag_108:\n      dup2\n      sload\n      dup2\n      mstore\n      swap1\n      0x01\n      add\n      swap1\n      0x20\n      add\n      dup1\n      dup4\n      gt\n      tag_108\n      jumpi\n      dup3\n      swap1\n      sub\n      0x1f\n      and\n      dup3\n      add\n      swap2\n    tag_106:\n      pop\n      pop\n      pop\n      pop\n      pop\n      swap1\n      pop\n        /* \"contracts/FirstContract.sol\":993:1016  string memory _position */\n      0x00\n        /* \"contracts/FirstContract.sol\":1019:1026  company */\n      0x01\n        /* \"contracts/FirstContract.sol\":1027:1032  _name */\n      dup4\n        /* \"contracts/FirstContract.sol\":1019:1033  company[_name] */\n      mload(0x40)\n      tag_109\n      swap2\n      swap1\n      tag_51\n      jump\t// in\n    tag_109:\n      swap1\n      dup2\n      mstore\n      0x20\n      add\n      mload(0x40)\n      dup1\n      swap2\n      sub\n      swap1\n      keccak256\n        /* \"contracts/FirstContract.sol\":1019:1042  company[_name].position */\n      0x01\n      add\n        /* \"contracts/FirstContract.sol\":993:1042  string memory _position = company[_name].position */\n      dup1\n      sload\n      tag_110\n      swap1\n      tag_55\n      jump\t// in\n    tag_110:\n      dup1\n      0x1f\n      add\n      0x20\n      dup1\n      swap2\n      div\n      mul\n      0x20\n      add\n      mload(0x40)\n      swap1\n      dup2\n      add\n      0x40\n      mstore\n      dup1\n      swap3\n      swap2\n      swap1\n      dup2\n      dup2\n      mstore\n      0x20\n      add\n      dup3\n      dup1\n      sload\n      tag_111\n      swap1\n      tag_55\n      jump\t// in\n    tag_111:\n      dup1\n      iszero\n      tag_112\n      jumpi\n      dup1\n      0x1f\n      lt\n      tag_113\n      jumpi\n      0x0100\n      dup1\n      dup4\n      sload\n      div\n      mul\n      dup4\n      mstore\n      swap2\n      0x20\n      add\n      swap2\n      jump(tag_112)\n    tag_113:\n      dup3\n      add\n      swap2\n      swap1\n      0x00\n      mstore\n      keccak256(0x00, 0x20)\n      swap1\n    tag_114:\n      dup2\n      sload\n      dup2\n      mstore\n      swap1\n      0x01\n      add\n      swap1\n      0x20\n      add\n      dup1\n      dup4\n      gt\n      tag_114\n      jumpi\n      dup3\n      swap1\n      sub\n      0x1f\n      and\n      dup3\n      add\n      swap2\n    tag_112:\n      pop\n      pop\n      pop\n      pop\n      pop\n      swap1\n      pop\n        /* \"contracts/FirstContract.sol\":1081:1111  Webmob(_department, _position) */\n      mload(0x40)\n      dup1\n      0x40\n      add\n      0x40\n      mstore\n      dup1\n        /* \"contracts/FirstContract.sol\":1088:1099  _department */\n      dup4\n        /* \"contracts/FirstContract.sol\":1081:1111  Webmob(_department, _position) */\n      dup2\n      mstore\n      0x20\n      add\n        /* \"contracts/FirstContract.sol\":1101:1110  _position */\n      dup3\n        /* \"contracts/FirstContract.sol\":1081:1111  Webmob(_department, _position) */\n      dup2\n      mstore\n      pop\n        /* \"contracts/FirstContract.sol\":1053:1065  EmployeeData */\n      0x02\n        /* \"contracts/FirstContract.sol\":1053:1070  EmployeeData[_id] */\n      0x00\n        /* \"contracts/FirstContract.sol\":1066:1069  _id */\n      dup7\n        /* \"contracts/FirstContract.sol\":1053:1070  EmployeeData[_id] */\n      dup2\n      mstore\n      0x20\n      add\n      swap1\n      dup2\n      mstore\n      0x20\n      add\n      0x00\n      keccak256\n        /* \"contracts/FirstContract.sol\":1071:1076  _name */\n      dup5\n        /* \"contracts/FirstContract.sol\":1053:1077  EmployeeData[_id][_name] */\n      mload(0x40)\n      tag_115\n      swap2\n      swap1\n      tag_51\n      jump\t// in\n    tag_115:\n      swap1\n      dup2\n      mstore\n      0x20\n      add\n      mload(0x40)\n      dup1\n      swap2\n      sub\n      swap1\n      keccak256\n        /* \"contracts/FirstContract.sol\":1053:1111  EmployeeData[_id][_name] =  Webmob(_department, _position) */\n      0x00\n      dup3\n      add\n      mload\n      dup2\n      0x00\n      add\n      swap1\n      dup1\n      mload\n      swap1\n      0x20\n      add\n      swap1\n      tag_116\n      swap3\n      swap2\n      swap1\n      tag_48\n      jump\t// in\n    tag_116:\n      pop\n      0x20\n      dup3\n      add\n      mload\n      dup2\n      0x01\n      add\n      swap1\n      dup1\n      mload\n      swap1\n      0x20\n      add\n      swap1\n      tag_117\n      swap3\n      swap2\n      swap1\n      tag_48\n      jump\t// in\n    tag_117:\n      pop\n      swap1\n      pop\n      pop\n        /* \"contracts/FirstContract.sol\":911:1118  {... */\n      pop\n      pop\n        /* \"contracts/FirstContract.sol\":850:1118  function addDatabase( uint _id, string memory _name ) public {... */\n      pop\n      pop\n      jump\t// out\n    tag_48:\n      dup3\n      dup1\n      sload\n      tag_118\n      swap1\n      tag_55\n      jump\t// in\n    tag_118:\n      swap1\n      0x00\n      mstore\n      keccak256(0x00, 0x20)\n      swap1\n      0x1f\n      add\n      0x20\n      swap1\n      div\n      dup2\n      add\n      swap3\n      dup3\n      tag_120\n      jumpi\n      0x00\n      dup6\n      sstore\n      jump(tag_119)\n    tag_120:\n      dup3\n      0x1f\n      lt\n      tag_121\n      jumpi\n      dup1\n      mload\n      not(0xff)\n      and\n      dup4\n      dup1\n      add\n      or\n      dup6\n      sstore\n      jump(tag_119)\n    tag_121:\n      dup3\n      dup1\n      add\n      0x01\n      add\n      dup6\n      sstore\n      dup3\n      iszero\n      tag_119\n      jumpi\n      swap2\n      dup3\n      add\n    tag_122:\n      dup3\n      dup2\n      gt\n      iszero\n      tag_123\n      jumpi\n      dup3\n      mload\n      dup3\n      sstore\n      swap2\n      0x20\n      add\n      swap2\n      swap1\n      0x01\n      add\n      swap1\n      jump(tag_122)\n    tag_123:\n    tag_119:\n      pop\n      swap1\n      pop\n      tag_124\n      swap2\n      swap1\n      tag_125\n      jump\t// in\n    tag_124:\n      pop\n      swap1\n      jump\t// out\n    tag_125:\n    tag_126:\n      dup1\n      dup3\n      gt\n      iszero\n      tag_127\n      jumpi\n      0x00\n      dup2\n      0x00\n      swap1\n      sstore\n      pop\n      0x01\n      add\n      jump(tag_126)\n    tag_127:\n      pop\n      swap1\n      jump\t// out\n        /* \"#utility.yul\":7:419   */\n    tag_129:\n        /* \"#utility.yul\":85:90   */\n      0x00\n        /* \"#utility.yul\":110:176   */\n      tag_131\n        /* \"#utility.yul\":126:175   */\n      tag_132\n        /* \"#utility.yul\":168:174   */\n      dup5\n        /* \"#utility.yul\":126:175   */\n      tag_133\n      jump\t// in\n    tag_132:\n        /* \"#utility.yul\":110:176   */\n      tag_134\n      jump\t// in\n    tag_131:\n        /* \"#utility.yul\":101:176   */\n      swap1\n      pop\n        /* \"#utility.yul\":199:205   */\n      dup3\n        /* \"#utility.yul\":192:197   */\n      dup2\n        /* \"#utility.yul\":185:206   */\n      mstore\n        /* \"#utility.yul\":237:241   */\n      0x20\n        /* \"#utility.yul\":230:235   */\n      dup2\n        /* \"#utility.yul\":226:242   */\n      add\n        /* \"#utility.yul\":275:278   */\n      dup5\n        /* \"#utility.yul\":266:272   */\n      dup5\n        /* \"#utility.yul\":261:264   */\n      dup5\n        /* \"#utility.yul\":257:273   */\n      add\n        /* \"#utility.yul\":254:279   */\n      gt\n        /* \"#utility.yul\":251:363   */\n      iszero\n      tag_135\n      jumpi\n        /* \"#utility.yul\":282:361   */\n      tag_136\n      tag_137\n      jump\t// in\n    tag_136:\n        /* \"#utility.yul\":251:363   */\n    tag_135:\n        /* \"#utility.yul\":372:413   */\n      tag_138\n        /* \"#utility.yul\":406:412   */\n      dup5\n        /* \"#utility.yul\":401:404   */\n      dup3\n        /* \"#utility.yul\":396:399   */\n      dup6\n        /* \"#utility.yul\":372:413   */\n      tag_139\n      jump\t// in\n    tag_138:\n        /* \"#utility.yul\":91:419   */\n      pop\n        /* \"#utility.yul\":7:419   */\n      swap4\n      swap3\n      pop\n      pop\n      pop\n      jump\t// out\n        /* \"#utility.yul\":439:779   */\n    tag_140:\n        /* \"#utility.yul\":495:500   */\n      0x00\n        /* \"#utility.yul\":544:547   */\n      dup3\n        /* \"#utility.yul\":537:541   */\n      0x1f\n        /* \"#utility.yul\":529:535   */\n      dup4\n        /* \"#utility.yul\":525:542   */\n      add\n        /* \"#utility.yul\":521:548   */\n      slt\n        /* \"#utility.yul\":511:633   */\n      tag_142\n      jumpi\n        /* \"#utility.yul\":552:631   */\n      tag_143\n      tag_144\n      jump\t// in\n    tag_143:\n        /* \"#utility.yul\":511:633   */\n    tag_142:\n        /* \"#utility.yul\":669:675   */\n      dup2\n        /* \"#utility.yul\":656:676   */\n      calldataload\n        /* \"#utility.yul\":694:773   */\n      tag_145\n        /* \"#utility.yul\":769:772   */\n      dup5\n        /* \"#utility.yul\":761:767   */\n      dup3\n        /* \"#utility.yul\":754:758   */\n      0x20\n        /* \"#utility.yul\":746:752   */\n      dup7\n        /* \"#utility.yul\":742:759   */\n      add\n        /* \"#utility.yul\":694:773   */\n      tag_129\n      jump\t// in\n    tag_145:\n        /* \"#utility.yul\":685:773   */\n      swap2\n      pop\n        /* \"#utility.yul\":501:779   */\n      pop\n        /* \"#utility.yul\":439:779   */\n      swap3\n      swap2\n      pop\n      pop\n      jump\t// out\n        /* \"#utility.yul\":785:924   */\n    tag_146:\n        /* \"#utility.yul\":831:836   */\n      0x00\n        /* \"#utility.yul\":869:875   */\n      dup2\n        /* \"#utility.yul\":856:876   */\n      calldataload\n        /* \"#utility.yul\":847:876   */\n      swap1\n      pop\n        /* \"#utility.yul\":885:918   */\n      tag_148\n        /* \"#utility.yul\":912:917   */\n      dup2\n        /* \"#utility.yul\":885:918   */\n      tag_149\n      jump\t// in\n    tag_148:\n        /* \"#utility.yul\":785:924   */\n      swap3\n      swap2\n      pop\n      pop\n      jump\t// out\n        /* \"#utility.yul\":930:1439   */\n    tag_40:\n        /* \"#utility.yul\":999:1005   */\n      0x00\n        /* \"#utility.yul\":1048:1050   */\n      0x20\n        /* \"#utility.yul\":1036:1045   */\n      dup3\n        /* \"#utility.yul\":1027:1034   */\n      dup5\n        /* \"#utility.yul\":1023:1046   */\n      sub\n        /* \"#utility.yul\":1019:1051   */\n      slt\n        /* \"#utility.yul\":1016:1135   */\n      iszero\n      tag_151\n      jumpi\n        /* \"#utility.yul\":1054:1133   */\n      tag_152\n      tag_153\n      jump\t// in\n    tag_152:\n        /* \"#utility.yul\":1016:1135   */\n    tag_151:\n        /* \"#utility.yul\":1202:1203   */\n      0x00\n        /* \"#utility.yul\":1191:1200   */\n      dup3\n        /* \"#utility.yul\":1187:1204   */\n      add\n        /* \"#utility.yul\":1174:1205   */\n      calldataload\n        /* \"#utility.yul\":1232:1250   */\n      0xffffffffffffffff\n        /* \"#utility.yul\":1224:1230   */\n      dup2\n        /* \"#utility.yul\":1221:1251   */\n      gt\n        /* \"#utility.yul\":1218:1335   */\n      iszero\n      tag_154\n      jumpi\n        /* \"#utility.yul\":1254:1333   */\n      tag_155\n      tag_156\n      jump\t// in\n    tag_155:\n        /* \"#utility.yul\":1218:1335   */\n    tag_154:\n        /* \"#utility.yul\":1359:1422   */\n      tag_157\n        /* \"#utility.yul\":1414:1421   */\n      dup5\n        /* \"#utility.yul\":1405:1411   */\n      dup3\n        /* \"#utility.yul\":1394:1403   */\n      dup6\n        /* \"#utility.yul\":1390:1412   */\n      add\n        /* \"#utility.yul\":1359:1422   */\n      tag_140\n      jump\t// in\n    tag_157:\n        /* \"#utility.yul\":1349:1422   */\n      swap2\n      pop\n        /* \"#utility.yul\":1145:1432   */\n      pop\n        /* \"#utility.yul\":930:1439   */\n      swap3\n      swap2\n      pop\n      pop\n      jump\t// out\n        /* \"#utility.yul\":1445:2604   */\n    tag_14:\n        /* \"#utility.yul\":1552:1558   */\n      0x00\n        /* \"#utility.yul\":1560:1566   */\n      dup1\n        /* \"#utility.yul\":1568:1574   */\n      0x00\n        /* \"#utility.yul\":1617:1619   */\n      0x60\n        /* \"#utility.yul\":1605:1614   */\n      dup5\n        /* \"#utility.yul\":1596:1603   */\n      dup7\n        /* \"#utility.yul\":1592:1615   */\n      sub\n        /* \"#utility.yul\":1588:1620   */\n      slt\n        /* \"#utility.yul\":1585:1704   */\n      iszero\n      tag_159\n      jumpi\n        /* \"#utility.yul\":1623:1702   */\n      tag_160\n      tag_153\n      jump\t// in\n    tag_160:\n        /* \"#utility.yul\":1585:1704   */\n    tag_159:\n        /* \"#utility.yul\":1771:1772   */\n      0x00\n        /* \"#utility.yul\":1760:1769   */\n      dup5\n        /* \"#utility.yul\":1756:1773   */\n      add\n        /* \"#utility.yul\":1743:1774   */\n      calldataload\n        /* \"#utility.yul\":1801:1819   */\n      0xffffffffffffffff\n        /* \"#utility.yul\":1793:1799   */\n      dup2\n        /* \"#utility.yul\":1790:1820   */\n      gt\n        /* \"#utility.yul\":1787:1904   */\n      iszero\n      tag_161\n      jumpi\n        /* \"#utility.yul\":1823:1902   */\n      tag_162\n      tag_156\n      jump\t// in\n    tag_162:\n        /* \"#utility.yul\":1787:1904   */\n    tag_161:\n        /* \"#utility.yul\":1928:1991   */\n      tag_163\n        /* \"#utility.yul\":1983:1990   */\n      dup7\n        /* \"#utility.yul\":1974:1980   */\n      dup3\n        /* \"#utility.yul\":1963:1972   */\n      dup8\n        /* \"#utility.yul\":1959:1981   */\n      add\n        /* \"#utility.yul\":1928:1991   */\n      tag_140\n      jump\t// in\n    tag_163:\n        /* \"#utility.yul\":1918:1991   */\n      swap4\n      pop\n        /* \"#utility.yul\":1714:2001   */\n      pop\n        /* \"#utility.yul\":2068:2070   */\n      0x20\n        /* \"#utility.yul\":2057:2066   */\n      dup5\n        /* \"#utility.yul\":2053:2071   */\n      add\n        /* \"#utility.yul\":2040:2072   */\n      calldataload\n        /* \"#utility.yul\":2099:2117   */\n      0xffffffffffffffff\n        /* \"#utility.yul\":2091:2097   */\n      dup2\n        /* \"#utility.yul\":2088:2118   */\n      gt\n        /* \"#utility.yul\":2085:2202   */\n      iszero\n      tag_164\n      jumpi\n        /* \"#utility.yul\":2121:2200   */\n      tag_165\n      tag_156\n      jump\t// in\n    tag_165:\n        /* \"#utility.yul\":2085:2202   */\n    tag_164:\n        /* \"#utility.yul\":2226:2289   */\n      tag_166\n        /* \"#utility.yul\":2281:2288   */\n      dup7\n        /* \"#utility.yul\":2272:2278   */\n      dup3\n        /* \"#utility.yul\":2261:2270   */\n      dup8\n        /* \"#utility.yul\":2257:2279   */\n      add\n        /* \"#utility.yul\":2226:2289   */\n      tag_140\n      jump\t// in\n    tag_166:\n        /* \"#utility.yul\":2216:2289   */\n      swap3\n      pop\n        /* \"#utility.yul\":2011:2299   */\n      pop\n        /* \"#utility.yul\":2366:2368   */\n      0x40\n        /* \"#utility.yul\":2355:2364   */\n      dup5\n        /* \"#utility.yul\":2351:2369   */\n      add\n        /* \"#utility.yul\":2338:2370   */\n      calldataload\n        /* \"#utility.yul\":2397:2415   */\n      0xffffffffffffffff\n        /* \"#utility.yul\":2389:2395   */\n      dup2\n        /* \"#utility.yul\":2386:2416   */\n      gt\n        /* \"#utility.yul\":2383:2500   */\n      iszero\n      tag_167\n      jumpi\n        /* \"#utility.yul\":2419:2498   */\n      tag_168\n      tag_156\n      jump\t// in\n    tag_168:\n        /* \"#utility.yul\":2383:2500   */\n    tag_167:\n        /* \"#utility.yul\":2524:2587   */\n      tag_169\n        /* \"#utility.yul\":2579:2586   */\n      dup7\n        /* \"#utility.yul\":2570:2576   */\n      dup3\n        /* \"#utility.yul\":2559:2568   */\n      dup8\n        /* \"#utility.yul\":2555:2577   */\n      add\n        /* \"#utility.yul\":2524:2587   */\n      tag_140\n      jump\t// in\n    tag_169:\n        /* \"#utility.yul\":2514:2587   */\n      swap2\n      pop\n        /* \"#utility.yul\":2309:2597   */\n      pop\n        /* \"#utility.yul\":1445:2604   */\n      swap3\n      pop\n      swap3\n      pop\n      swap3\n      jump\t// out\n        /* \"#utility.yul\":2610:2939   */\n    tag_24:\n        /* \"#utility.yul\":2669:2675   */\n      0x00\n        /* \"#utility.yul\":2718:2720   */\n      0x20\n        /* \"#utility.yul\":2706:2715   */\n      dup3\n        /* \"#utility.yul\":2697:2704   */\n      dup5\n        /* \"#utility.yul\":2693:2716   */\n      sub\n        /* \"#utility.yul\":2689:2721   */\n      slt\n        /* \"#utility.yul\":2686:2805   */\n      iszero\n      tag_171\n      jumpi\n        /* \"#utility.yul\":2724:2803   */\n      tag_172\n      tag_153\n      jump\t// in\n    tag_172:\n        /* \"#utility.yul\":2686:2805   */\n    tag_171:\n        /* \"#utility.yul\":2844:2845   */\n      0x00\n        /* \"#utility.yul\":2869:2922   */\n      tag_173\n        /* \"#utility.yul\":2914:2921   */\n      dup5\n        /* \"#utility.yul\":2905:2911   */\n      dup3\n        /* \"#utility.yul\":2894:2903   */\n      dup6\n        /* \"#utility.yul\":2890:2912   */\n      add\n        /* \"#utility.yul\":2869:2922   */\n      tag_146\n      jump\t// in\n    tag_173:\n        /* \"#utility.yul\":2859:2922   */\n      swap2\n      pop\n        /* \"#utility.yul\":2815:2932   */\n      pop\n        /* \"#utility.yul\":2610:2939   */\n      swap3\n      swap2\n      pop\n      pop\n      jump\t// out\n        /* \"#utility.yul\":2945:3599   */\n    tag_18:\n        /* \"#utility.yul\":3023:3029   */\n      0x00\n        /* \"#utility.yul\":3031:3037   */\n      dup1\n        /* \"#utility.yul\":3080:3082   */\n      0x40\n        /* \"#utility.yul\":3068:3077   */\n      dup4\n        /* \"#utility.yul\":3059:3066   */\n      dup6\n        /* \"#utility.yul\":3055:3078   */\n      sub\n        /* \"#utility.yul\":3051:3083   */\n      slt\n        /* \"#utility.yul\":3048:3167   */\n      iszero\n      tag_175\n      jumpi\n        /* \"#utility.yul\":3086:3165   */\n      tag_176\n      tag_153\n      jump\t// in\n    tag_176:\n        /* \"#utility.yul\":3048:3167   */\n    tag_175:\n        /* \"#utility.yul\":3206:3207   */\n      0x00\n        /* \"#utility.yul\":3231:3284   */\n      tag_177\n        /* \"#utility.yul\":3276:3283   */\n      dup6\n        /* \"#utility.yul\":3267:3273   */\n      dup3\n        /* \"#utility.yul\":3256:3265   */\n      dup7\n        /* \"#utility.yul\":3252:3274   */\n      add\n        /* \"#utility.yul\":3231:3284   */\n      tag_146\n      jump\t// in\n    tag_177:\n        /* \"#utility.yul\":3221:3284   */\n      swap3\n      pop\n        /* \"#utility.yul\":3177:3294   */\n      pop\n        /* \"#utility.yul\":3361:3363   */\n      0x20\n        /* \"#utility.yul\":3350:3359   */\n      dup4\n        /* \"#utility.yul\":3346:3364   */\n      add\n        /* \"#utility.yul\":3333:3365   */\n      calldataload\n        /* \"#utility.yul\":3392:3410   */\n      0xffffffffffffffff\n        /* \"#utility.yul\":3384:3390   */\n      dup2\n        /* \"#utility.yul\":3381:3411   */\n      gt\n        /* \"#utility.yul\":3378:3495   */\n      iszero\n      tag_178\n      jumpi\n        /* \"#utility.yul\":3414:3493   */\n      tag_179\n      tag_156\n      jump\t// in\n    tag_179:\n        /* \"#utility.yul\":3378:3495   */\n    tag_178:\n        /* \"#utility.yul\":3519:3582   */\n      tag_180\n        /* \"#utility.yul\":3574:3581   */\n      dup6\n        /* \"#utility.yul\":3565:3571   */\n      dup3\n        /* \"#utility.yul\":3554:3563   */\n      dup7\n        /* \"#utility.yul\":3550:3572   */\n      add\n        /* \"#utility.yul\":3519:3582   */\n      tag_140\n      jump\t// in\n    tag_180:\n        /* \"#utility.yul\":3509:3582   */\n      swap2\n      pop\n        /* \"#utility.yul\":3304:3592   */\n      pop\n        /* \"#utility.yul\":2945:3599   */\n      swap3\n      pop\n      swap3\n      swap1\n      pop\n      jump\t// out\n        /* \"#utility.yul\":3605:3969   */\n    tag_181:\n        /* \"#utility.yul\":3693:3696   */\n      0x00\n        /* \"#utility.yul\":3721:3760   */\n      tag_183\n        /* \"#utility.yul\":3754:3759   */\n      dup3\n        /* \"#utility.yul\":3721:3760   */\n      tag_184\n      jump\t// in\n    tag_183:\n        /* \"#utility.yul\":3776:3847   */\n      tag_185\n        /* \"#utility.yul\":3840:3846   */\n      dup2\n        /* \"#utility.yul\":3835:3838   */\n      dup6\n        /* \"#utility.yul\":3776:3847   */\n      tag_186\n      jump\t// in\n    tag_185:\n        /* \"#utility.yul\":3769:3847   */\n      swap4\n      pop\n        /* \"#utility.yul\":3856:3908   */\n      tag_187\n        /* \"#utility.yul\":3901:3907   */\n      dup2\n        /* \"#utility.yul\":3896:3899   */\n      dup6\n        /* \"#utility.yul\":3889:3893   */\n      0x20\n        /* \"#utility.yul\":3882:3887   */\n      dup7\n        /* \"#utility.yul\":3878:3894   */\n      add\n        /* \"#utility.yul\":3856:3908   */\n      tag_188\n      jump\t// in\n    tag_187:\n        /* \"#utility.yul\":3933:3962   */\n      tag_189\n        /* \"#utility.yul\":3955:3961   */\n      dup2\n        /* \"#utility.yul\":3933:3962   */\n      tag_190\n      jump\t// in\n    tag_189:\n        /* \"#utility.yul\":3928:3931   */\n      dup5\n        /* \"#utility.yul\":3924:3963   */\n      add\n        /* \"#utility.yul\":3917:3963   */\n      swap2\n      pop\n        /* \"#utility.yul\":3697:3969   */\n      pop\n        /* \"#utility.yul\":3605:3969   */\n      swap3\n      swap2\n      pop\n      pop\n      jump\t// out\n        /* \"#utility.yul\":3975:4352   */\n    tag_191:\n        /* \"#utility.yul\":4081:4084   */\n      0x00\n        /* \"#utility.yul\":4109:4148   */\n      tag_193\n        /* \"#utility.yul\":4142:4147   */\n      dup3\n        /* \"#utility.yul\":4109:4148   */\n      tag_184\n      jump\t// in\n    tag_193:\n        /* \"#utility.yul\":4164:4253   */\n      tag_194\n        /* \"#utility.yul\":4246:4252   */\n      dup2\n        /* \"#utility.yul\":4241:4244   */\n      dup6\n        /* \"#utility.yul\":4164:4253   */\n      tag_195\n      jump\t// in\n    tag_194:\n        /* \"#utility.yul\":4157:4253   */\n      swap4\n      pop\n        /* \"#utility.yul\":4262:4314   */\n      tag_196\n        /* \"#utility.yul\":4307:4313   */\n      dup2\n        /* \"#utility.yul\":4302:4305   */\n      dup6\n        /* \"#utility.yul\":4295:4299   */\n      0x20\n        /* \"#utility.yul\":4288:4293   */\n      dup7\n        /* \"#utility.yul\":4284:4300   */\n      add\n        /* \"#utility.yul\":4262:4314   */\n      tag_188\n      jump\t// in\n    tag_196:\n        /* \"#utility.yul\":4339:4345   */\n      dup1\n        /* \"#utility.yul\":4334:4337   */\n      dup5\n        /* \"#utility.yul\":4330:4346   */\n      add\n        /* \"#utility.yul\":4323:4346   */\n      swap2\n      pop\n        /* \"#utility.yul\":4085:4352   */\n      pop\n        /* \"#utility.yul\":3975:4352   */\n      swap3\n      swap2\n      pop\n      pop\n      jump\t// out\n        /* \"#utility.yul\":4358:4470   */\n    tag_197:\n        /* \"#utility.yul\":4441:4463   */\n      tag_199\n        /* \"#utility.yul\":4457:4462   */\n      dup2\n        /* \"#utility.yul\":4441:4463   */\n      tag_200\n      jump\t// in\n    tag_199:\n        /* \"#utility.yul\":4436:4439   */\n      dup3\n        /* \"#utility.yul\":4429:4464   */\n      mstore\n        /* \"#utility.yul\":4358:4470   */\n      pop\n      pop\n      jump\t// out\n        /* \"#utility.yul\":4476:4751   */\n    tag_51:\n        /* \"#utility.yul\":4608:4611   */\n      0x00\n        /* \"#utility.yul\":4630:4725   */\n      tag_202\n        /* \"#utility.yul\":4721:4724   */\n      dup3\n        /* \"#utility.yul\":4712:4718   */\n      dup5\n        /* \"#utility.yul\":4630:4725   */\n      tag_191\n      jump\t// in\n    tag_202:\n        /* \"#utility.yul\":4623:4725   */\n      swap2\n      pop\n        /* \"#utility.yul\":4742:4745   */\n      dup2\n        /* \"#utility.yul\":4735:4745   */\n      swap1\n      pop\n        /* \"#utility.yul\":4476:4751   */\n      swap3\n      swap2\n      pop\n      pop\n      jump\t// out\n        /* \"#utility.yul\":4757:5070   */\n    tag_27:\n        /* \"#utility.yul\":4870:4874   */\n      0x00\n        /* \"#utility.yul\":4908:4910   */\n      0x20\n        /* \"#utility.yul\":4897:4906   */\n      dup3\n        /* \"#utility.yul\":4893:4911   */\n      add\n        /* \"#utility.yul\":4885:4911   */\n      swap1\n      pop\n        /* \"#utility.yul\":4957:4966   */\n      dup2\n        /* \"#utility.yul\":4951:4955   */\n      dup2\n        /* \"#utility.yul\":4947:4967   */\n      sub\n        /* \"#utility.yul\":4943:4944   */\n      0x00\n        /* \"#utility.yul\":4932:4941   */\n      dup4\n        /* \"#utility.yul\":4928:4945   */\n      add\n        /* \"#utility.yul\":4921:4968   */\n      mstore\n        /* \"#utility.yul\":4985:5063   */\n      tag_204\n        /* \"#utility.yul\":5058:5062   */\n      dup2\n        /* \"#utility.yul\":5049:5055   */\n      dup5\n        /* \"#utility.yul\":4985:5063   */\n      tag_181\n      jump\t// in\n    tag_204:\n        /* \"#utility.yul\":4977:5063   */\n      swap1\n      pop\n        /* \"#utility.yul\":4757:5070   */\n      swap3\n      swap2\n      pop\n      pop\n      jump\t// out\n        /* \"#utility.yul\":5076:5590   */\n    tag_21:\n        /* \"#utility.yul\":5237:5241   */\n      0x00\n        /* \"#utility.yul\":5275:5277   */\n      0x40\n        /* \"#utility.yul\":5264:5273   */\n      dup3\n        /* \"#utility.yul\":5260:5278   */\n      add\n        /* \"#utility.yul\":5252:5278   */\n      swap1\n      pop\n        /* \"#utility.yul\":5324:5333   */\n      dup2\n        /* \"#utility.yul\":5318:5322   */\n      dup2\n        /* \"#utility.yul\":5314:5334   */\n      sub\n        /* \"#utility.yul\":5310:5311   */\n      0x00\n        /* \"#utility.yul\":5299:5308   */\n      dup4\n        /* \"#utility.yul\":5295:5312   */\n      add\n        /* \"#utility.yul\":5288:5335   */\n      mstore\n        /* \"#utility.yul\":5352:5430   */\n      tag_206\n        /* \"#utility.yul\":5425:5429   */\n      dup2\n        /* \"#utility.yul\":5416:5422   */\n      dup6\n        /* \"#utility.yul\":5352:5430   */\n      tag_181\n      jump\t// in\n    tag_206:\n        /* \"#utility.yul\":5344:5430   */\n      swap1\n      pop\n        /* \"#utility.yul\":5477:5486   */\n      dup2\n        /* \"#utility.yul\":5471:5475   */\n      dup2\n        /* \"#utility.yul\":5467:5487   */\n      sub\n        /* \"#utility.yul\":5462:5464   */\n      0x20\n        /* \"#utility.yul\":5451:5460   */\n      dup4\n        /* \"#utility.yul\":5447:5465   */\n      add\n        /* \"#utility.yul\":5440:5488   */\n      mstore\n        /* \"#utility.yul\":5505:5583   */\n      tag_207\n        /* \"#utility.yul\":5578:5582   */\n      dup2\n        /* \"#utility.yul\":5569:5575   */\n      dup5\n        /* \"#utility.yul\":5505:5583   */\n      tag_181\n      jump\t// in\n    tag_207:\n        /* \"#utility.yul\":5497:5583   */\n      swap1\n      pop\n        /* \"#utility.yul\":5076:5590   */\n      swap4\n      swap3\n      pop\n      pop\n      pop\n      jump\t// out\n        /* \"#utility.yul\":5596:5810   */\n    tag_32:\n        /* \"#utility.yul\":5685:5689   */\n      0x00\n        /* \"#utility.yul\":5723:5725   */\n      0x20\n        /* \"#utility.yul\":5712:5721   */\n      dup3\n        /* \"#utility.yul\":5708:5726   */\n      add\n        /* \"#utility.yul\":5700:5726   */\n      swap1\n      pop\n        /* \"#utility.yul\":5736:5803   */\n      tag_209\n        /* \"#utility.yul\":5800:5801   */\n      0x00\n        /* \"#utility.yul\":5789:5798   */\n      dup4\n        /* \"#utility.yul\":5785:5802   */\n      add\n        /* \"#utility.yul\":5776:5782   */\n      dup5\n        /* \"#utility.yul\":5736:5803   */\n      tag_197\n      jump\t// in\n    tag_209:\n        /* \"#utility.yul\":5596:5810   */\n      swap3\n      swap2\n      pop\n      pop\n      jump\t// out\n        /* \"#utility.yul\":5816:5945   */\n    tag_134:\n        /* \"#utility.yul\":5850:5856   */\n      0x00\n        /* \"#utility.yul\":5877:5897   */\n      tag_211\n      tag_212\n      jump\t// in\n    tag_211:\n        /* \"#utility.yul\":5867:5897   */\n      swap1\n      pop\n        /* \"#utility.yul\":5906:5939   */\n      tag_213\n        /* \"#utility.yul\":5934:5938   */\n      dup3\n        /* \"#utility.yul\":5926:5932   */\n      dup3\n        /* \"#utility.yul\":5906:5939   */\n      tag_214\n      jump\t// in\n    tag_213:\n        /* \"#utility.yul\":5816:5945   */\n      swap2\n      swap1\n      pop\n      jump\t// out\n        /* \"#utility.yul\":5951:6026   */\n    tag_212:\n        /* \"#utility.yul\":5984:5990   */\n      0x00\n        /* \"#utility.yul\":6017:6019   */\n      0x40\n        /* \"#utility.yul\":6011:6020   */\n      mload\n        /* \"#utility.yul\":6001:6020   */\n      swap1\n      pop\n        /* \"#utility.yul\":5951:6026   */\n      swap1\n      jump\t// out\n        /* \"#utility.yul\":6032:6340   */\n    tag_133:\n        /* \"#utility.yul\":6094:6098   */\n      0x00\n        /* \"#utility.yul\":6184:6202   */\n      0xffffffffffffffff\n        /* \"#utility.yul\":6176:6182   */\n      dup3\n        /* \"#utility.yul\":6173:6203   */\n      gt\n        /* \"#utility.yul\":6170:6226   */\n      iszero\n      tag_217\n      jumpi\n        /* \"#utility.yul\":6206:6224   */\n      tag_218\n      tag_219\n      jump\t// in\n    tag_218:\n        /* \"#utility.yul\":6170:6226   */\n    tag_217:\n        /* \"#utility.yul\":6244:6273   */\n      tag_220\n        /* \"#utility.yul\":6266:6272   */\n      dup3\n        /* \"#utility.yul\":6244:6273   */\n      tag_190\n      jump\t// in\n    tag_220:\n        /* \"#utility.yul\":6236:6273   */\n      swap1\n      pop\n        /* \"#utility.yul\":6328:6332   */\n      0x20\n        /* \"#utility.yul\":6322:6326   */\n      dup2\n        /* \"#utility.yul\":6318:6333   */\n      add\n        /* \"#utility.yul\":6310:6333   */\n      swap1\n      pop\n        /* \"#utility.yul\":6032:6340   */\n      swap2\n      swap1\n      pop\n      jump\t// out\n        /* \"#utility.yul\":6346:6445   */\n    tag_184:\n        /* \"#utility.yul\":6398:6404   */\n      0x00\n        /* \"#utility.yul\":6432:6437   */\n      dup2\n        /* \"#utility.yul\":6426:6438   */\n      mload\n        /* \"#utility.yul\":6416:6438   */\n      swap1\n      pop\n        /* \"#utility.yul\":6346:6445   */\n      swap2\n      swap1\n      pop\n      jump\t// out\n        /* \"#utility.yul\":6451:6620   */\n    tag_186:\n        /* \"#utility.yul\":6535:6546   */\n      0x00\n        /* \"#utility.yul\":6569:6575   */\n      dup3\n        /* \"#utility.yul\":6564:6567   */\n      dup3\n        /* \"#utility.yul\":6557:6576   */\n      mstore\n        /* \"#utility.yul\":6609:6613   */\n      0x20\n        /* \"#utility.yul\":6604:6607   */\n      dup3\n        /* \"#utility.yul\":6600:6614   */\n      add\n        /* \"#utility.yul\":6585:6614   */\n      swap1\n      pop\n        /* \"#utility.yul\":6451:6620   */\n      swap3\n      swap2\n      pop\n      pop\n      jump\t// out\n        /* \"#utility.yul\":6626:6774   */\n    tag_195:\n        /* \"#utility.yul\":6728:6739   */\n      0x00\n        /* \"#utility.yul\":6765:6768   */\n      dup2\n        /* \"#utility.yul\":6750:6768   */\n      swap1\n      pop\n        /* \"#utility.yul\":6626:6774   */\n      swap3\n      swap2\n      pop\n      pop\n      jump\t// out\n        /* \"#utility.yul\":6780:6857   */\n    tag_224:\n        /* \"#utility.yul\":6817:6824   */\n      0x00\n        /* \"#utility.yul\":6846:6851   */\n      dup2\n        /* \"#utility.yul\":6835:6851   */\n      swap1\n      pop\n        /* \"#utility.yul\":6780:6857   */\n      swap2\n      swap1\n      pop\n      jump\t// out\n        /* \"#utility.yul\":6863:6949   */\n    tag_200:\n        /* \"#utility.yul\":6898:6905   */\n      0x00\n        /* \"#utility.yul\":6938:6942   */\n      0xff\n        /* \"#utility.yul\":6931:6936   */\n      dup3\n        /* \"#utility.yul\":6927:6943   */\n      and\n        /* \"#utility.yul\":6916:6943   */\n      swap1\n      pop\n        /* \"#utility.yul\":6863:6949   */\n      swap2\n      swap1\n      pop\n      jump\t// out\n        /* \"#utility.yul\":6955:7109   */\n    tag_139:\n        /* \"#utility.yul\":7039:7045   */\n      dup3\n        /* \"#utility.yul\":7034:7037   */\n      dup2\n        /* \"#utility.yul\":7029:7032   */\n      dup4\n        /* \"#utility.yul\":7016:7046   */\n      calldatacopy\n        /* \"#utility.yul\":7101:7102   */\n      0x00\n        /* \"#utility.yul\":7092:7098   */\n      dup4\n        /* \"#utility.yul\":7087:7090   */\n      dup4\n        /* \"#utility.yul\":7083:7099   */\n      add\n        /* \"#utility.yul\":7076:7103   */\n      mstore\n        /* \"#utility.yul\":6955:7109   */\n      pop\n      pop\n      pop\n      jump\t// out\n        /* \"#utility.yul\":7115:7422   */\n    tag_188:\n        /* \"#utility.yul\":7183:7184   */\n      0x00\n        /* \"#utility.yul\":7193:7306   */\n    tag_229:\n        /* \"#utility.yul\":7207:7213   */\n      dup4\n        /* \"#utility.yul\":7204:7205   */\n      dup2\n        /* \"#utility.yul\":7201:7214   */\n      lt\n        /* \"#utility.yul\":7193:7306   */\n      iszero\n      tag_231\n      jumpi\n        /* \"#utility.yul\":7292:7293   */\n      dup1\n        /* \"#utility.yul\":7287:7290   */\n      dup3\n        /* \"#utility.yul\":7283:7294   */\n      add\n        /* \"#utility.yul\":7277:7295   */\n      mload\n        /* \"#utility.yul\":7273:7274   */\n      dup2\n        /* \"#utility.yul\":7268:7271   */\n      dup5\n        /* \"#utility.yul\":7264:7275   */\n      add\n        /* \"#utility.yul\":7257:7296   */\n      mstore\n        /* \"#utility.yul\":7229:7231   */\n      0x20\n        /* \"#utility.yul\":7226:7227   */\n      dup2\n        /* \"#utility.yul\":7222:7232   */\n      add\n        /* \"#utility.yul\":7217:7232   */\n      swap1\n      pop\n        /* \"#utility.yul\":7193:7306   */\n      jump(tag_229)\n    tag_231:\n        /* \"#utility.yul\":7324:7330   */\n      dup4\n        /* \"#utility.yul\":7321:7322   */\n      dup2\n        /* \"#utility.yul\":7318:7331   */\n      gt\n        /* \"#utility.yul\":7315:7416   */\n      iszero\n      tag_232\n      jumpi\n        /* \"#utility.yul\":7404:7405   */\n      0x00\n        /* \"#utility.yul\":7395:7401   */\n      dup5\n        /* \"#utility.yul\":7390:7393   */\n      dup5\n        /* \"#utility.yul\":7386:7402   */\n      add\n        /* \"#utility.yul\":7379:7406   */\n      mstore\n        /* \"#utility.yul\":7315:7416   */\n    tag_232:\n        /* \"#utility.yul\":7164:7422   */\n      pop\n        /* \"#utility.yul\":7115:7422   */\n      pop\n      pop\n      pop\n      jump\t// out\n        /* \"#utility.yul\":7428:7748   */\n    tag_55:\n        /* \"#utility.yul\":7472:7478   */\n      0x00\n        /* \"#utility.yul\":7509:7510   */\n      0x02\n        /* \"#utility.yul\":7503:7507   */\n      dup3\n        /* \"#utility.yul\":7499:7511   */\n      div\n        /* \"#utility.yul\":7489:7511   */\n      swap1\n      pop\n        /* \"#utility.yul\":7556:7557   */\n      0x01\n        /* \"#utility.yul\":7550:7554   */\n      dup3\n        /* \"#utility.yul\":7546:7558   */\n      and\n        /* \"#utility.yul\":7577:7595   */\n      dup1\n        /* \"#utility.yul\":7567:7648   */\n      tag_234\n      jumpi\n        /* \"#utility.yul\":7633:7637   */\n      0x7f\n        /* \"#utility.yul\":7625:7631   */\n      dup3\n        /* \"#utility.yul\":7621:7638   */\n      and\n        /* \"#utility.yul\":7611:7638   */\n      swap2\n      pop\n        /* \"#utility.yul\":7567:7648   */\n    tag_234:\n        /* \"#utility.yul\":7695:7697   */\n      0x20\n        /* \"#utility.yul\":7687:7693   */\n      dup3\n        /* \"#utility.yul\":7684:7698   */\n      lt\n        /* \"#utility.yul\":7664:7682   */\n      dup2\n        /* \"#utility.yul\":7661:7699   */\n      eq\n        /* \"#utility.yul\":7658:7742   */\n      iszero\n      tag_235\n      jumpi\n        /* \"#utility.yul\":7714:7732   */\n      tag_236\n      tag_237\n      jump\t// in\n    tag_236:\n        /* \"#utility.yul\":7658:7742   */\n    tag_235:\n        /* \"#utility.yul\":7479:7748   */\n      pop\n        /* \"#utility.yul\":7428:7748   */\n      swap2\n      swap1\n      pop\n      jump\t// out\n        /* \"#utility.yul\":7754:8035   */\n    tag_214:\n        /* \"#utility.yul\":7837:7864   */\n      tag_239\n        /* \"#utility.yul\":7859:7863   */\n      dup3\n        /* \"#utility.yul\":7837:7864   */\n      tag_190\n      jump\t// in\n    tag_239:\n        /* \"#utility.yul\":7829:7835   */\n      dup2\n        /* \"#utility.yul\":7825:7865   */\n      add\n        /* \"#utility.yul\":7967:7973   */\n      dup2\n        /* \"#utility.yul\":7955:7965   */\n      dup2\n        /* \"#utility.yul\":7952:7974   */\n      lt\n        /* \"#utility.yul\":7931:7949   */\n      0xffffffffffffffff\n        /* \"#utility.yul\":7919:7929   */\n      dup3\n        /* \"#utility.yul\":7916:7950   */\n      gt\n        /* \"#utility.yul\":7913:7975   */\n      or\n        /* \"#utility.yul\":7910:7998   */\n      iszero\n      tag_240\n      jumpi\n        /* \"#utility.yul\":7978:7996   */\n      tag_241\n      tag_219\n      jump\t// in\n    tag_241:\n        /* \"#utility.yul\":7910:7998   */\n    tag_240:\n        /* \"#utility.yul\":8018:8028   */\n      dup1\n        /* \"#utility.yul\":8014:8016   */\n      0x40\n        /* \"#utility.yul\":8007:8029   */\n      mstore\n        /* \"#utility.yul\":7797:8035   */\n      pop\n        /* \"#utility.yul\":7754:8035   */\n      pop\n      pop\n      jump\t// out\n        /* \"#utility.yul\":8041:8208   */\n    tag_91:\n        /* \"#utility.yul\":8078:8081   */\n      0x00\n        /* \"#utility.yul\":8101:8123   */\n      tag_243\n        /* \"#utility.yul\":8117:8122   */\n      dup3\n        /* \"#utility.yul\":8101:8123   */\n      tag_200\n      jump\t// in\n    tag_243:\n        /* \"#utility.yul\":8092:8123   */\n      swap2\n      pop\n        /* \"#utility.yul\":8145:8149   */\n      0xff\n        /* \"#utility.yul\":8138:8143   */\n      dup3\n        /* \"#utility.yul\":8135:8150   */\n      eq\n        /* \"#utility.yul\":8132:8173   */\n      iszero\n      tag_244\n      jumpi\n        /* \"#utility.yul\":8153:8171   */\n      tag_245\n      tag_246\n      jump\t// in\n    tag_245:\n        /* \"#utility.yul\":8132:8173   */\n    tag_244:\n        /* \"#utility.yul\":8200:8201   */\n      0x01\n        /* \"#utility.yul\":8193:8198   */\n      dup3\n        /* \"#utility.yul\":8189:8202   */\n      add\n        /* \"#utility.yul\":8182:8202   */\n      swap1\n      pop\n        /* \"#utility.yul\":8041:8208   */\n      swap2\n      swap1\n      pop\n      jump\t// out\n        /* \"#utility.yul\":8214:8394   */\n    tag_246:\n        /* \"#utility.yul\":8262:8339   */\n      0x4e487b7100000000000000000000000000000000000000000000000000000000\n        /* \"#utility.yul\":8259:8260   */\n      0x00\n        /* \"#utility.yul\":8252:8340   */\n      mstore\n        /* \"#utility.yul\":8359:8363   */\n      0x11\n        /* \"#utility.yul\":8356:8357   */\n      0x04\n        /* \"#utility.yul\":8349:8364   */\n      mstore\n        /* \"#utility.yul\":8383:8387   */\n      0x24\n        /* \"#utility.yul\":8380:8381   */\n      0x00\n        /* \"#utility.yul\":8373:8388   */\n      revert\n        /* \"#utility.yul\":8400:8580   */\n    tag_237:\n        /* \"#utility.yul\":8448:8525   */\n      0x4e487b7100000000000000000000000000000000000000000000000000000000\n        /* \"#utility.yul\":8445:8446   */\n      0x00\n        /* \"#utility.yul\":8438:8526   */\n      mstore\n        /* \"#utility.yul\":8545:8549   */\n      0x22\n        /* \"#utility.yul\":8542:8543   */\n      0x04\n        /* \"#utility.yul\":8535:8550   */\n      mstore\n        /* \"#utility.yul\":8569:8573   */\n      0x24\n        /* \"#utility.yul\":8566:8567   */\n      0x00\n        /* \"#utility.yul\":8559:8574   */\n      revert\n        /* \"#utility.yul\":8586:8766   */\n    tag_88:\n        /* \"#utility.yul\":8634:8711   */\n      0x4e487b7100000000000000000000000000000000000000000000000000000000\n        /* \"#utility.yul\":8631:8632   */\n      0x00\n        /* \"#utility.yul\":8624:8712   */\n      mstore\n        /* \"#utility.yul\":8731:8735   */\n      0x32\n        /* \"#utility.yul\":8728:8729   */\n      0x04\n        /* \"#utility.yul\":8721:8736   */\n      mstore\n        /* \"#utility.yul\":8755:8759   */\n      0x24\n        /* \"#utility.yul\":8752:8753   */\n      0x00\n        /* \"#utility.yul\":8745:8760   */\n      revert\n        /* \"#utility.yul\":8772:8952   */\n    tag_219:\n        /* \"#utility.yul\":8820:8897   */\n      0x4e487b7100000000000000000000000000000000000000000000000000000000\n        /* \"#utility.yul\":8817:8818   */\n      0x00\n        /* \"#utility.yul\":8810:8898   */\n      mstore\n        /* \"#utility.yul\":8917:8921   */\n      0x41\n        /* \"#utility.yul\":8914:8915   */\n      0x04\n        /* \"#utility.yul\":8907:8922   */\n      mstore\n        /* \"#utility.yul\":8941:8945   */\n      0x24\n        /* \"#utility.yul\":8938:8939   */\n      0x00\n        /* \"#utility.yul\":8931:8946   */\n      revert\n        /* \"#utility.yul\":8958:9075   */\n    tag_144:\n        /* \"#utility.yul\":9067:9068   */\n      0x00\n        /* \"#utility.yul\":9064:9065   */\n      dup1\n        /* \"#utility.yul\":9057:9069   */\n      revert\n        /* \"#utility.yul\":9081:9198   */\n    tag_137:\n        /* \"#utility.yul\":9190:9191   */\n      0x00\n        /* \"#utility.yul\":9187:9188   */\n      dup1\n        /* \"#utility.yul\":9180:9192   */\n      revert\n        /* \"#utility.yul\":9204:9321   */\n    tag_156:\n        /* \"#utility.yul\":9313:9314   */\n      0x00\n        /* \"#utility.yul\":9310:9311   */\n      dup1\n        /* \"#utility.yul\":9303:9315   */\n      revert\n        /* \"#utility.yul\":9327:9444   */\n    tag_153:\n        /* \"#utility.yul\":9436:9437   */\n      0x00\n        /* \"#utility.yul\":9433:9434   */\n      dup1\n        /* \"#utility.yul\":9426:9438   */\n      revert\n        /* \"#utility.yul\":9450:9552   */\n    tag_190:\n        /* \"#utility.yul\":9491:9497   */\n      0x00\n        /* \"#utility.yul\":9542:9544   */\n      0x1f\n        /* \"#utility.yul\":9538:9545   */\n      not\n        /* \"#utility.yul\":9533:9535   */\n      0x1f\n        /* \"#utility.yul\":9526:9531   */\n      dup4\n        /* \"#utility.yul\":9522:9536   */\n      add\n        /* \"#utility.yul\":9518:9546   */\n      and\n        /* \"#utility.yul\":9508:9546   */\n      swap1\n      pop\n        /* \"#utility.yul\":9450:9552   */\n      swap2\n      swap1\n      pop\n      jump\t// out\n        /* \"#utility.yul\":9558:9680   */\n    tag_149:\n        /* \"#utility.yul\":9631:9655   */\n      tag_257\n        /* \"#utility.yul\":9649:9654   */\n      dup2\n        /* \"#utility.yul\":9631:9655   */\n      tag_224\n      jump\t// in\n    tag_257:\n        /* \"#utility.yul\":9624:9629   */\n      dup2\n        /* \"#utility.yul\":9621:9656   */\n      eq\n        /* \"#utility.yul\":9611:9674   */\n      tag_258\n      jumpi\n        /* \"#utility.yul\":9670:9671   */\n      0x00\n        /* \"#utility.yul\":9667:9668   */\n      dup1\n        /* \"#utility.yul\":9660:9672   */\n      revert\n        /* \"#utility.yul\":9611:9674   */\n    tag_258:\n        /* \"#utility.yul\":9558:9680   */\n      pop\n      jump\t// out\n\n    auxdata: 0xa2646970667358221220ca4576f6b05191f2b7557dcc61ef461f12c42d0919e46a3f59058ad46c858cc964736f6c63430008070033\n}\n",
				"bytecode": {
					"linkReferences": {},
					"object": "60806040523480156200001157600080fd5b506040518060400160405280600581526020017f4e6974696e0000000000000000000000000000000000000000000000000000008152506000806001815260200190815260200160002090805190602001906200007092919062000194565b506040518060400160405280600481526020017f416d697400000000000000000000000000000000000000000000000000000000815250600080600281526020019081526020016000209080519060200190620000cf92919062000194565b506040518060400160405280600581526020017f54656a61730000000000000000000000000000000000000000000000000000008152506000806003815260200190815260200160002090805190602001906200012e92919062000194565b506040518060400160405280600581526020017f417279616e0000000000000000000000000000000000000000000000000000008152506000806004815260200190815260200160002090805190602001906200018d92919062000194565b50620002a9565b828054620001a29062000244565b90600052602060002090601f016020900481019282620001c6576000855562000212565b82601f10620001e157805160ff191683800117855562000212565b8280016001018555821562000212579182015b8281111562000211578251825591602001919060010190620001f4565b5b50905062000221919062000225565b5090565b5b808211156200024057600081600090555060010162000226565b5090565b600060028204905060018216806200025d57607f821691505b602082108114156200027457620002736200027a565b5b50919050565b7f4e487b7100000000000000000000000000000000000000000000000000000000600052602260045260246000fd5b610fc980620002b96000396000f3fe608060405234801561001057600080fd5b50600436106100885760003560e01c80637ae431fd1161005b5780637ae431fd1461013a578063a92100cb14610159578063cfbdc51914610163578063ef5abff71461019457610088565b80630acf70ac1461008d5780630c1770a4146100a95780634622ab03146100da57806371e5ee5f1461010a575b600080fd5b6100a760048036038101906100a29190610b04565b6101b0565b005b6100c360048036038101906100be9190610bd8565b610279565b6040516100d1929190610ce6565b60405180910390f35b6100f460048036038101906100ef9190610bab565b6103d0565b6040516101019190610cc4565b60405180910390f35b610124600480360381019061011f9190610bab565b610470565b6040516101319190610d1d565b60405180910390f35b61014261049a565b604051610150929190610ce6565b60405180910390f35b6101616105bc565b005b61017d60048036038101906101789190610abb565b610666565b60405161018b929190610ce6565b60405180910390f35b6101ae60048036038101906101a99190610bd8565b6107b0565b005b604051806040016040528083815260200182815250600560008201518160000190805190602001906101e3929190610993565b506020820151816001019080519060200190610200929190610993565b509050506040518060400160405280838152602001828152506001846040516102299190610cad565b90815260200160405180910390206000820151816000019080519060200190610253929190610993565b506020820151816001019080519060200190610270929190610993565b50905050505050565b600260205281600052604060002081805160208101820180518482526020830160208501208183528095505050505050600091509150508060000180546102bf90610e0e565b80601f01602080910402602001604051908101604052809291908181526020018280546102eb90610e0e565b80156103385780601f1061030d57610100808354040283529160200191610338565b820191906000526020600020905b81548152906001019060200180831161031b57829003601f168201915b50505050509080600101805461034d90610e0e565b80601f016020809104026020016040519081016040528092919081815260200182805461037990610e0e565b80156103c65780601f1061039b576101008083540402835291602001916103c6565b820191906000526020600020905b8154815290600101906020018083116103a957829003601f168201915b5050505050905082565b600060205280600052604060002060009150905080546103ef90610e0e565b80601f016020809104026020016040519081016040528092919081815260200182805461041b90610e0e565b80156104685780601f1061043d57610100808354040283529160200191610468565b820191906000526020600020905b81548152906001019060200180831161044b57829003601f168201915b505050505081565b6004816003811061048057600080fd5b60209182820401919006915054906101000a900460ff1681565b60058060000180546104ab90610e0e565b80601f01602080910402602001604051908101604052809291908181526020018280546104d790610e0e565b80156105245780601f106104f957610100808354040283529160200191610524565b820191906000526020600020905b81548152906001019060200180831161050757829003601f168201915b50505050509080600101805461053990610e0e565b80601f016020809104026020016040519081016040528092919081815260200182805461056590610e0e565b80156105b25780601f10610587576101008083540402835291602001916105b2565b820191906000526020600020905b81548152906001019060200180831161059557829003601f168201915b5050505050905082565b5b600360009054906101000a900460ff166004600360009054906101000a900460ff1660ff16600381106105f3576105f2610ef9565b5b602091828204019190066101000a81548160ff021916908360ff1602179055506003600081819054906101000a900460ff168092919061063290610e71565b91906101000a81548160ff021916908360ff1602179055505060038060009054906101000a900460ff1660ff16106105bd57565b60018180516020810182018051848252602083016020850120818352809550505050505060009150905080600001805461069f90610e0e565b80601f01602080910402602001604051908101604052809291908181526020018280546106cb90610e0e565b80156107185780601f106106ed57610100808354040283529160200191610718565b820191906000526020600020905b8154815290600101906020018083116106fb57829003601f168201915b50505050509080600101805461072d90610e0e565b80601f016020809104026020016040519081016040528092919081815260200182805461075990610e0e565b80156107a65780601f1061077b576101008083540402835291602001916107a6565b820191906000526020600020905b81548152906001019060200180831161078957829003601f168201915b5050505050905082565b60006001826040516107c29190610cad565b908152602001604051809103902060000180546107de90610e0e565b80601f016020809104026020016040519081016040528092919081815260200182805461080a90610e0e565b80156108575780601f1061082c57610100808354040283529160200191610857565b820191906000526020600020905b81548152906001019060200180831161083a57829003601f168201915b5050505050905060006001836040516108709190610cad565b9081526020016040518091039020600101805461088c90610e0e565b80601f01602080910402602001604051908101604052809291908181526020018280546108b890610e0e565b80156109055780601f106108da57610100808354040283529160200191610905565b820191906000526020600020905b8154815290600101906020018083116108e857829003601f168201915b5050505050905060405180604001604052808381526020018281525060026000868152602001908152602001600020846040516109429190610cad565b9081526020016040518091039020600082015181600001908051906020019061096c929190610993565b506020820151816001019080519060200190610989929190610993565b5090505050505050565b82805461099f90610e0e565b90600052602060002090601f0160209004810192826109c15760008555610a08565b82601f106109da57805160ff1916838001178555610a08565b82800160010185558215610a08579182015b82811115610a075782518255916020019190600101906109ec565b5b509050610a159190610a19565b5090565b5b80821115610a32576000816000905550600101610a1a565b5090565b6000610a49610a4484610d5d565b610d38565b905082815260208101848484011115610a6557610a64610f5c565b5b610a70848285610dcc565b509392505050565b600082601f830112610a8d57610a8c610f57565b5b8135610a9d848260208601610a36565b91505092915050565b600081359050610ab581610f7c565b92915050565b600060208284031215610ad157610ad0610f66565b5b600082013567ffffffffffffffff811115610aef57610aee610f61565b5b610afb84828501610a78565b91505092915050565b600080600060608486031215610b1d57610b1c610f66565b5b600084013567ffffffffffffffff811115610b3b57610b3a610f61565b5b610b4786828701610a78565b935050602084013567ffffffffffffffff811115610b6857610b67610f61565b5b610b7486828701610a78565b925050604084013567ffffffffffffffff811115610b9557610b94610f61565b5b610ba186828701610a78565b9150509250925092565b600060208284031215610bc157610bc0610f66565b5b6000610bcf84828501610aa6565b91505092915050565b60008060408385031215610bef57610bee610f66565b5b6000610bfd85828601610aa6565b925050602083013567ffffffffffffffff811115610c1e57610c1d610f61565b5b610c2a85828601610a78565b9150509250929050565b6000610c3f82610d8e565b610c498185610d99565b9350610c59818560208601610ddb565b610c6281610f6b565b840191505092915050565b6000610c7882610d8e565b610c828185610daa565b9350610c92818560208601610ddb565b80840191505092915050565b610ca781610dbf565b82525050565b6000610cb98284610c6d565b915081905092915050565b60006020820190508181036000830152610cde8184610c34565b905092915050565b60006040820190508181036000830152610d008185610c34565b90508181036020830152610d148184610c34565b90509392505050565b6000602082019050610d326000830184610c9e565b92915050565b6000610d42610d53565b9050610d4e8282610e40565b919050565b6000604051905090565b600067ffffffffffffffff821115610d7857610d77610f28565b5b610d8182610f6b565b9050602081019050919050565b600081519050919050565b600082825260208201905092915050565b600081905092915050565b6000819050919050565b600060ff82169050919050565b82818337600083830152505050565b60005b83811015610df9578082015181840152602081019050610dde565b83811115610e08576000848401525b50505050565b60006002820490506001821680610e2657607f821691505b60208210811415610e3a57610e39610eca565b5b50919050565b610e4982610f6b565b810181811067ffffffffffffffff82111715610e6857610e67610f28565b5b80604052505050565b6000610e7c82610dbf565b915060ff821415610e9057610e8f610e9b565b5b600182019050919050565b7f4e487b7100000000000000000000000000000000000000000000000000000000600052601160045260246000fd5b7f4e487b7100000000000000000000000000000000000000000000000000000000600052602260045260246000fd5b7f4e487b7100000000000000000000000000000000000000000000000000000000600052603260045260246000fd5b7f4e487b7100000000000000000000000000000000000000000000000000000000600052604160045260246000fd5b600080fd5b600080fd5b600080fd5b600080fd5b6000601f19601f8301169050919050565b610f8581610db5565b8114610f9057600080fd5b5056fea2646970667358221220ca4576f6b05191f2b7557dcc61ef461f12c42d0919e46a3f59058ad46c858cc964736f6c63430008070033",
					"opcodes": "PUSH1 0x80 PUSH1 0x40 MSTORE CALLVALUE DUP1 ISZERO PUSH3 0x11 JUMPI PUSH1 0x0 DUP1 REVERT JUMPDEST POP PUSH1 0x40 MLOAD DUP1 PUSH1 0x40 ADD PUSH1 0x40 MSTORE DUP1 PUSH1 0x5 DUP2 MSTORE PUSH1 0x20 ADD PUSH32 0x4E6974696E000000000000000000000000000000000000000000000000000000 DUP2 MSTORE POP PUSH1 0x0 DUP1 PUSH1 0x1 DUP2 MSTORE PUSH1 0x20 ADD SWAP1 DUP2 MSTORE PUSH1 0x20 ADD PUSH1 0x0 KECCAK256 SWAP1 DUP1 MLOAD SWAP1 PUSH1 0x20 ADD SWAP1 PUSH3 0x70 SWAP3 SWAP2 SWAP1 PUSH3 0x194 JUMP JUMPDEST POP PUSH1 0x40 MLOAD DUP1 PUSH1 0x40 ADD PUSH1 0x40 MSTORE DUP1 PUSH1 0x4 DUP2 MSTORE PUSH1 0x20 ADD PUSH32 0x416D697400000000000000000000000000000000000000000000000000000000 DUP2 MSTORE POP PUSH1 0x0 DUP1 PUSH1 0x2 DUP2 MSTORE PUSH1 0x20 ADD SWAP1 DUP2 MSTORE PUSH1 0x20 ADD PUSH1 0x0 KECCAK256 SWAP1 DUP1 MLOAD SWAP1 PUSH1 0x20 ADD SWAP1 PUSH3 0xCF SWAP3 SWAP2 SWAP1 PUSH3 0x194 JUMP JUMPDEST POP PUSH1 0x40 MLOAD DUP1 PUSH1 0x40 ADD PUSH1 0x40 MSTORE DUP1 PUSH1 0x5 DUP2 MSTORE PUSH1 0x20 ADD PUSH32 0x54656A6173000000000000000000000000000000000000000000000000000000 DUP2 MSTORE POP PUSH1 0x0 DUP1 PUSH1 0x3 DUP2 MSTORE PUSH1 0x20 ADD SWAP1 DUP2 MSTORE PUSH1 0x20 ADD PUSH1 0x0 KECCAK256 SWAP1 DUP1 MLOAD SWAP1 PUSH1 0x20 ADD SWAP1 PUSH3 0x12E SWAP3 SWAP2 SWAP1 PUSH3 0x194 JUMP JUMPDEST POP PUSH1 0x40 MLOAD DUP1 PUSH1 0x40 ADD PUSH1 0x40 MSTORE DUP1 PUSH1 0x5 DUP2 MSTORE PUSH1 0x20 ADD PUSH32 0x417279616E000000000000000000000000000000000000000000000000000000 DUP2 MSTORE POP PUSH1 0x0 DUP1 PUSH1 0x4 DUP2 MSTORE PUSH1 0x20 ADD SWAP1 DUP2 MSTORE PUSH1 0x20 ADD PUSH1 0x0 KECCAK256 SWAP1 DUP1 MLOAD SWAP1 PUSH1 0x20 ADD SWAP1 PUSH3 0x18D SWAP3 SWAP2 SWAP1 PUSH3 0x194 JUMP JUMPDEST POP PUSH3 0x2A9 JUMP JUMPDEST DUP3 DUP1 SLOAD PUSH3 0x1A2 SWAP1 PUSH3 0x244 JUMP JUMPDEST SWAP1 PUSH1 0x0 MSTORE PUSH1 0x20 PUSH1 0x0 KECCAK256 SWAP1 PUSH1 0x1F ADD PUSH1 0x20 SWAP1 DIV DUP2 ADD SWAP3 DUP3 PUSH3 0x1C6 JUMPI PUSH1 0x0 DUP6 SSTORE PUSH3 0x212 JUMP JUMPDEST DUP3 PUSH1 0x1F LT PUSH3 0x1E1 JUMPI DUP1 MLOAD PUSH1 0xFF NOT AND DUP4 DUP1 ADD OR DUP6 SSTORE PUSH3 0x212 JUMP JUMPDEST DUP3 DUP1 ADD PUSH1 0x1 ADD DUP6 SSTORE DUP3 ISZERO PUSH3 0x212 JUMPI SWAP2 DUP3 ADD JUMPDEST DUP3 DUP2 GT ISZERO PUSH3 0x211 JUMPI DUP3 MLOAD DUP3 SSTORE SWAP2 PUSH1 0x20 ADD SWAP2 SWAP1 PUSH1 0x1 ADD SWAP1 PUSH3 0x1F4 JUMP JUMPDEST JUMPDEST POP SWAP1 POP PUSH3 0x221 SWAP2 SWAP1 PUSH3 0x225 JUMP JUMPDEST POP SWAP1 JUMP JUMPDEST JUMPDEST DUP1 DUP3 GT ISZERO PUSH3 0x240 JUMPI PUSH1 0x0 DUP2 PUSH1 0x0 SWAP1 SSTORE POP PUSH1 0x1 ADD PUSH3 0x226 JUMP JUMPDEST POP SWAP1 JUMP JUMPDEST PUSH1 0x0 PUSH1 0x2 DUP3 DIV SWAP1 POP PUSH1 0x1 DUP3 AND DUP1 PUSH3 0x25D JUMPI PUSH1 0x7F DUP3 AND SWAP2 POP JUMPDEST PUSH1 0x20 DUP3 LT DUP2 EQ ISZERO PUSH3 0x274 JUMPI PUSH3 0x273 PUSH3 0x27A JUMP JUMPDEST JUMPDEST POP SWAP2 SWAP1 POP JUMP JUMPDEST PUSH32 0x4E487B7100000000000000000000000000000000000000000000000000000000 PUSH1 0x0 MSTORE PUSH1 0x22 PUSH1 0x4 MSTORE PUSH1 0x24 PUSH1 0x0 REVERT JUMPDEST PUSH2 0xFC9 DUP1 PUSH3 0x2B9 PUSH1 0x0 CODECOPY PUSH1 0x0 RETURN INVALID PUSH1 0x80 PUSH1 0x40 MSTORE CALLVALUE DUP1 ISZERO PUSH2 0x10 JUMPI PUSH1 0x0 DUP1 REVERT JUMPDEST POP PUSH1 0x4 CALLDATASIZE LT PUSH2 0x88 JUMPI PUSH1 0x0 CALLDATALOAD PUSH1 0xE0 SHR DUP1 PUSH4 0x7AE431FD GT PUSH2 0x5B JUMPI DUP1 PUSH4 0x7AE431FD EQ PUSH2 0x13A JUMPI DUP1 PUSH4 0xA92100CB EQ PUSH2 0x159 JUMPI DUP1 PUSH4 0xCFBDC519 EQ PUSH2 0x163 JUMPI DUP1 PUSH4 0xEF5ABFF7 EQ PUSH2 0x194 JUMPI PUSH2 0x88 JUMP JUMPDEST DUP1 PUSH4 0xACF70AC EQ PUSH2 0x8D JUMPI DUP1 PUSH4 0xC1770A4 EQ PUSH2 0xA9 JUMPI DUP1 PUSH4 0x4622AB03 EQ PUSH2 0xDA JUMPI DUP1 PUSH4 0x71E5EE5F EQ PUSH2 0x10A JUMPI JUMPDEST PUSH1 0x0 DUP1 REVERT JUMPDEST PUSH2 0xA7 PUSH1 0x4 DUP1 CALLDATASIZE SUB DUP2 ADD SWAP1 PUSH2 0xA2 SWAP2 SWAP1 PUSH2 0xB04 JUMP JUMPDEST PUSH2 0x1B0 JUMP JUMPDEST STOP JUMPDEST PUSH2 0xC3 PUSH1 0x4 DUP1 CALLDATASIZE SUB DUP2 ADD SWAP1 PUSH2 0xBE SWAP2 SWAP1 PUSH2 0xBD8 JUMP JUMPDEST PUSH2 0x279 JUMP JUMPDEST PUSH1 0x40 MLOAD PUSH2 0xD1 SWAP3 SWAP2 SWAP1 PUSH2 0xCE6 JUMP JUMPDEST PUSH1 0x40 MLOAD DUP1 SWAP2 SUB SWAP1 RETURN JUMPDEST PUSH2 0xF4 PUSH1 0x4 DUP1 CALLDATASIZE SUB DUP2 ADD SWAP1 PUSH2 0xEF SWAP2 SWAP1 PUSH2 0xBAB JUMP JUMPDEST PUSH2 0x3D0 JUMP JUMPDEST PUSH1 0x40 MLOAD PUSH2 0x101 SWAP2 SWAP1 PUSH2 0xCC4 JUMP JUMPDEST PUSH1 0x40 MLOAD DUP1 SWAP2 SUB SWAP1 RETURN JUMPDEST PUSH2 0x124 PUSH1 0x4 DUP1 CALLDATASIZE SUB DUP2 ADD SWAP1 PUSH2 0x11F SWAP2 SWAP1 PUSH2 0xBAB JUMP JUMPDEST PUSH2 0x470 JUMP JUMPDEST PUSH1 0x40 MLOAD PUSH2 0x131 SWAP2 SWAP1 PUSH2 0xD1D JUMP JUMPDEST PUSH1 0x40 MLOAD DUP1 SWAP2 SUB SWAP1 RETURN JUMPDEST PUSH2 0x142 PUSH2 0x49A JUMP JUMPDEST PUSH1 0x40 MLOAD PUSH2 0x150 SWAP3 SWAP2 SWAP1 PUSH2 0xCE6 JUMP JUMPDEST PUSH1 0x40 MLOAD DUP1 SWAP2 SUB SWAP1 RETURN JUMPDEST PUSH2 0x161 PUSH2 0x5BC JUMP JUMPDEST STOP JUMPDEST PUSH2 0x17D PUSH1 0x4 DUP1 CALLDATASIZE SUB DUP2 ADD SWAP1 PUSH2 0x178 SWAP2 SWAP1 PUSH2 0xABB JUMP JUMPDEST PUSH2 0x666 JUMP JUMPDEST PUSH1 0x40 MLOAD PUSH2 0x18B SWAP3 SWAP2 SWAP1 PUSH2 0xCE6 JUMP JUMPDEST PUSH1 0x40 MLOAD DUP1 SWAP2 SUB SWAP1 RETURN JUMPDEST PUSH2 0x1AE PUSH1 0x4 DUP1 CALLDATASIZE SUB DUP2 ADD SWAP1 PUSH2 0x1A9 SWAP2 SWAP1 PUSH2 0xBD8 JUMP JUMPDEST PUSH2 0x7B0 JUMP JUMPDEST STOP JUMPDEST PUSH1 0x40 MLOAD DUP1 PUSH1 0x40 ADD PUSH1 0x40 MSTORE DUP1 DUP4 DUP2 MSTORE PUSH1 0x20 ADD DUP3 DUP2 MSTORE POP PUSH1 0x5 PUSH1 0x0 DUP3 ADD MLOAD DUP2 PUSH1 0x0 ADD SWAP1 DUP1 MLOAD SWAP1 PUSH1 0x20 ADD SWAP1 PUSH2 0x1E3 SWAP3 SWAP2 SWAP1 PUSH2 0x993 JUMP JUMPDEST POP PUSH1 0x20 DUP3 ADD MLOAD DUP2 PUSH1 0x1 ADD SWAP1 DUP1 MLOAD SWAP1 PUSH1 0x20 ADD SWAP1 PUSH2 0x200 SWAP3 SWAP2 SWAP1 PUSH2 0x993 JUMP JUMPDEST POP SWAP1 POP POP PUSH1 0x40 MLOAD DUP1 PUSH1 0x40 ADD PUSH1 0x40 MSTORE DUP1 DUP4 DUP2 MSTORE PUSH1 0x20 ADD DUP3 DUP2 MSTORE POP PUSH1 0x1 DUP5 PUSH1 0x40 MLOAD PUSH2 0x229 SWAP2 SWAP1 PUSH2 0xCAD JUMP JUMPDEST SWAP1 DUP2 MSTORE PUSH1 0x20 ADD PUSH1 0x40 MLOAD DUP1 SWAP2 SUB SWAP1 KECCAK256 PUSH1 0x0 DUP3 ADD MLOAD DUP2 PUSH1 0x0 ADD SWAP1 DUP1 MLOAD SWAP1 PUSH1 0x20 ADD SWAP1 PUSH2 0x253 SWAP3 SWAP2 SWAP1 PUSH2 0x993 JUMP JUMPDEST POP PUSH1 0x20 DUP3 ADD MLOAD DUP2 PUSH1 0x1 ADD SWAP1 DUP1 MLOAD SWAP1 PUSH1 0x20 ADD SWAP1 PUSH2 0x270 SWAP3 SWAP2 SWAP1 PUSH2 0x993 JUMP JUMPDEST POP SWAP1 POP POP POP POP POP JUMP JUMPDEST PUSH1 0x2 PUSH1 0x20 MSTORE DUP2 PUSH1 0x0 MSTORE PUSH1 0x40 PUSH1 0x0 KECCAK256 DUP2 DUP1 MLOAD PUSH1 0x20 DUP2 ADD DUP3 ADD DUP1 MLOAD DUP5 DUP3 MSTORE PUSH1 0x20 DUP4 ADD PUSH1 0x20 DUP6 ADD KECCAK256 DUP2 DUP4 MSTORE DUP1 SWAP6 POP POP POP POP POP POP PUSH1 0x0 SWAP2 POP SWAP2 POP POP DUP1 PUSH1 0x0 ADD DUP1 SLOAD PUSH2 0x2BF SWAP1 PUSH2 0xE0E JUMP JUMPDEST DUP1 PUSH1 0x1F ADD PUSH1 0x20 DUP1 SWAP2 DIV MUL PUSH1 0x20 ADD PUSH1 0x40 MLOAD SWAP1 DUP2 ADD PUSH1 0x40 MSTORE DUP1 SWAP3 SWAP2 SWAP1 DUP2 DUP2 MSTORE PUSH1 0x20 ADD DUP3 DUP1 SLOAD PUSH2 0x2EB SWAP1 PUSH2 0xE0E JUMP JUMPDEST DUP1 ISZERO PUSH2 0x338 JUMPI DUP1 PUSH1 0x1F LT PUSH2 0x30D JUMPI PUSH2 0x100 DUP1 DUP4 SLOAD DIV MUL DUP4 MSTORE SWAP2 PUSH1 0x20 ADD SWAP2 PUSH2 0x338 JUMP JUMPDEST DUP3 ADD SWAP2 SWAP1 PUSH1 0x0 MSTORE PUSH1 0x20 PUSH1 0x0 KECCAK256 SWAP1 JUMPDEST DUP2 SLOAD DUP2 MSTORE SWAP1 PUSH1 0x1 ADD SWAP1 PUSH1 0x20 ADD DUP1 DUP4 GT PUSH2 0x31B JUMPI DUP3 SWAP1 SUB PUSH1 0x1F AND DUP3 ADD SWAP2 JUMPDEST POP POP POP POP POP SWAP1 DUP1 PUSH1 0x1 ADD DUP1 SLOAD PUSH2 0x34D SWAP1 PUSH2 0xE0E JUMP JUMPDEST DUP1 PUSH1 0x1F ADD PUSH1 0x20 DUP1 SWAP2 DIV MUL PUSH1 0x20 ADD PUSH1 0x40 MLOAD SWAP1 DUP2 ADD PUSH1 0x40 MSTORE DUP1 SWAP3 SWAP2 SWAP1 DUP2 DUP2 MSTORE PUSH1 0x20 ADD DUP3 DUP1 SLOAD PUSH2 0x379 SWAP1 PUSH2 0xE0E JUMP JUMPDEST DUP1 ISZERO PUSH2 0x3C6 JUMPI DUP1 PUSH1 0x1F LT PUSH2 0x39B JUMPI PUSH2 0x100 DUP1 DUP4 SLOAD DIV MUL DUP4 MSTORE SWAP2 PUSH1 0x20 ADD SWAP2 PUSH2 0x3C6 JUMP JUMPDEST DUP3 ADD SWAP2 SWAP1 PUSH1 0x0 MSTORE PUSH1 0x20 PUSH1 0x0 KECCAK256 SWAP1 JUMPDEST DUP2 SLOAD DUP2 MSTORE SWAP1 PUSH1 0x1 ADD SWAP1 PUSH1 0x20 ADD DUP1 DUP4 GT PUSH2 0x3A9 JUMPI DUP3 SWAP1 SUB PUSH1 0x1F AND DUP3 ADD SWAP2 JUMPDEST POP POP POP POP POP SWAP1 POP DUP3 JUMP JUMPDEST PUSH1 0x0 PUSH1 0x20 MSTORE DUP1 PUSH1 0x0 MSTORE PUSH1 0x40 PUSH1 0x0 KECCAK256 PUSH1 0x0 SWAP2 POP SWAP1 POP DUP1 SLOAD PUSH2 0x3EF SWAP1 PUSH2 0xE0E JUMP JUMPDEST DUP1 PUSH1 0x1F ADD PUSH1 0x20 DUP1 SWAP2 DIV MUL PUSH1 0x20 ADD PUSH1 0x40 MLOAD SWAP1 DUP2 ADD PUSH1 0x40 MSTORE DUP1 SWAP3 SWAP2 SWAP1 DUP2 DUP2 MSTORE PUSH1 0x20 ADD DUP3 DUP1 SLOAD PUSH2 0x41B SWAP1 PUSH2 0xE0E JUMP JUMPDEST DUP1 ISZERO PUSH2 0x468 JUMPI DUP1 PUSH1 0x1F LT PUSH2 0x43D JUMPI PUSH2 0x100 DUP1 DUP4 SLOAD DIV MUL DUP4 MSTORE SWAP2 PUSH1 0x20 ADD SWAP2 PUSH2 0x468 JUMP JUMPDEST DUP3 ADD SWAP2 SWAP1 PUSH1 0x0 MSTORE PUSH1 0x20 PUSH1 0x0 KECCAK256 SWAP1 JUMPDEST DUP2 SLOAD DUP2 MSTORE SWAP1 PUSH1 0x1 ADD SWAP1 PUSH1 0x20 ADD DUP1 DUP4 GT PUSH2 0x44B JUMPI DUP3 SWAP1 SUB PUSH1 0x1F AND DUP3 ADD SWAP2 JUMPDEST POP POP POP POP POP DUP2 JUMP JUMPDEST PUSH1 0x4 DUP2 PUSH1 0x3 DUP2 LT PUSH2 0x480 JUMPI PUSH1 0x0 DUP1 REVERT JUMPDEST PUSH1 0x20 SWAP2 DUP3 DUP3 DIV ADD SWAP2 SWAP1 MOD SWAP2 POP SLOAD SWAP1 PUSH2 0x100 EXP SWAP1 DIV PUSH1 0xFF AND DUP2 JUMP JUMPDEST PUSH1 0x5 DUP1 PUSH1 0x0 ADD DUP1 SLOAD PUSH2 0x4AB SWAP1 PUSH2 0xE0E JUMP JUMPDEST DUP1 PUSH1 0x1F ADD PUSH1 0x20 DUP1 SWAP2 DIV MUL PUSH1 0x20 ADD PUSH1 0x40 MLOAD SWAP1 DUP2 ADD PUSH1 0x40 MSTORE DUP1 SWAP3 SWAP2 SWAP1 DUP2 DUP2 MSTORE PUSH1 0x20 ADD DUP3 DUP1 SLOAD PUSH2 0x4D7 SWAP1 PUSH2 0xE0E JUMP JUMPDEST DUP1 ISZERO PUSH2 0x524 JUMPI DUP1 PUSH1 0x1F LT PUSH2 0x4F9 JUMPI PUSH2 0x100 DUP1 DUP4 SLOAD DIV MUL DUP4 MSTORE SWAP2 PUSH1 0x20 ADD SWAP2 PUSH2 0x524 JUMP JUMPDEST DUP3 ADD SWAP2 SWAP1 PUSH1 0x0 MSTORE PUSH1 0x20 PUSH1 0x0 KECCAK256 SWAP1 JUMPDEST DUP2 SLOAD DUP2 MSTORE SWAP1 PUSH1 0x1 ADD SWAP1 PUSH1 0x20 ADD DUP1 DUP4 GT PUSH2 0x507 JUMPI DUP3 SWAP1 SUB PUSH1 0x1F AND DUP3 ADD SWAP2 JUMPDEST POP POP POP POP POP SWAP1 DUP1 PUSH1 0x1 ADD DUP1 SLOAD PUSH2 0x539 SWAP1 PUSH2 0xE0E JUMP JUMPDEST DUP1 PUSH1 0x1F ADD PUSH1 0x20 DUP1 SWAP2 DIV MUL PUSH1 0x20 ADD PUSH1 0x40 MLOAD SWAP1 DUP2 ADD PUSH1 0x40 MSTORE DUP1 SWAP3 SWAP2 SWAP1 DUP2 DUP2 MSTORE PUSH1 0x20 ADD DUP3 DUP1 SLOAD PUSH2 0x565 SWAP1 PUSH2 0xE0E JUMP JUMPDEST DUP1 ISZERO PUSH2 0x5B2 JUMPI DUP1 PUSH1 0x1F LT PUSH2 0x587 JUMPI PUSH2 0x100 DUP1 DUP4 SLOAD DIV MUL DUP4 MSTORE SWAP2 PUSH1 0x20 ADD SWAP2 PUSH2 0x5B2 JUMP JUMPDEST DUP3 ADD SWAP2 SWAP1 PUSH1 0x0 MSTORE PUSH1 0x20 PUSH1 0x0 KECCAK256 SWAP1 JUMPDEST DUP2 SLOAD DUP2 MSTORE SWAP1 PUSH1 0x1 ADD SWAP1 PUSH1 0x20 ADD DUP1 DUP4 GT PUSH2 0x595 JUMPI DUP3 SWAP1 SUB PUSH1 0x1F AND DUP3 ADD SWAP2 JUMPDEST POP POP POP POP POP SWAP1 POP DUP3 JUMP JUMPDEST JUMPDEST PUSH1 0x3 PUSH1 0x0 SWAP1 SLOAD SWAP1 PUSH2 0x100 EXP SWAP1 DIV PUSH1 0xFF AND PUSH1 0x4 PUSH1 0x3 PUSH1 0x0 SWAP1 SLOAD SWAP1 PUSH2 0x100 EXP SWAP1 DIV PUSH1 0xFF AND PUSH1 0xFF AND PUSH1 0x3 DUP2 LT PUSH2 0x5F3 JUMPI PUSH2 0x5F2 PUSH2 0xEF9 JUMP JUMPDEST JUMPDEST PUSH1 0x20 SWAP2 DUP3 DUP3 DIV ADD SWAP2 SWAP1 MOD PUSH2 0x100 EXP DUP2 SLOAD DUP2 PUSH1 0xFF MUL NOT AND SWAP1 DUP4 PUSH1 0xFF AND MUL OR SWAP1 SSTORE POP PUSH1 0x3 PUSH1 0x0 DUP2 DUP2 SWAP1 SLOAD SWAP1 PUSH2 0x100 EXP SWAP1 DIV PUSH1 0xFF AND DUP1 SWAP3 SWAP2 SWAP1 PUSH2 0x632 SWAP1 PUSH2 0xE71 JUMP JUMPDEST SWAP2 SWAP1 PUSH2 0x100 EXP DUP2 SLOAD DUP2 PUSH1 0xFF MUL NOT AND SWAP1 DUP4 PUSH1 0xFF AND MUL OR SWAP1 SSTORE POP POP PUSH1 0x3 DUP1 PUSH1 0x0 SWAP1 SLOAD SWAP1 PUSH2 0x100 EXP SWAP1 DIV PUSH1 0xFF AND PUSH1 0xFF AND LT PUSH2 0x5BD JUMPI JUMP JUMPDEST PUSH1 0x1 DUP2 DUP1 MLOAD PUSH1 0x20 DUP2 ADD DUP3 ADD DUP1 MLOAD DUP5 DUP3 MSTORE PUSH1 0x20 DUP4 ADD PUSH1 0x20 DUP6 ADD KECCAK256 DUP2 DUP4 MSTORE DUP1 SWAP6 POP POP POP POP POP POP PUSH1 0x0 SWAP2 POP SWAP1 POP DUP1 PUSH1 0x0 ADD DUP1 SLOAD PUSH2 0x69F SWAP1 PUSH2 0xE0E JUMP JUMPDEST DUP1 PUSH1 0x1F ADD PUSH1 0x20 DUP1 SWAP2 DIV MUL PUSH1 0x20 ADD PUSH1 0x40 MLOAD SWAP1 DUP2 ADD PUSH1 0x40 MSTORE DUP1 SWAP3 SWAP2 SWAP1 DUP2 DUP2 MSTORE PUSH1 0x20 ADD DUP3 DUP1 SLOAD PUSH2 0x6CB SWAP1 PUSH2 0xE0E JUMP JUMPDEST DUP1 ISZERO PUSH2 0x718 JUMPI DUP1 PUSH1 0x1F LT PUSH2 0x6ED JUMPI PUSH2 0x100 DUP1 DUP4 SLOAD DIV MUL DUP4 MSTORE SWAP2 PUSH1 0x20 ADD SWAP2 PUSH2 0x718 JUMP JUMPDEST DUP3 ADD SWAP2 SWAP1 PUSH1 0x0 MSTORE PUSH1 0x20 PUSH1 0x0 KECCAK256 SWAP1 JUMPDEST DUP2 SLOAD DUP2 MSTORE SWAP1 PUSH1 0x1 ADD SWAP1 PUSH1 0x20 ADD DUP1 DUP4 GT PUSH2 0x6FB JUMPI DUP3 SWAP1 SUB PUSH1 0x1F AND DUP3 ADD SWAP2 JUMPDEST POP POP POP POP POP SWAP1 DUP1 PUSH1 0x1 ADD DUP1 SLOAD PUSH2 0x72D SWAP1 PUSH2 0xE0E JUMP JUMPDEST DUP1 PUSH1 0x1F ADD PUSH1 0x20 DUP1 SWAP2 DIV MUL PUSH1 0x20 ADD PUSH1 0x40 MLOAD SWAP1 DUP2 ADD PUSH1 0x40 MSTORE DUP1 SWAP3 SWAP2 SWAP1 DUP2 DUP2 MSTORE PUSH1 0x20 ADD DUP3 DUP1 SLOAD PUSH2 0x759 SWAP1 PUSH2 0xE0E JUMP JUMPDEST DUP1 ISZERO PUSH2 0x7A6 JUMPI DUP1 PUSH1 0x1F LT PUSH2 0x77B JUMPI PUSH2 0x100 DUP1 DUP4 SLOAD DIV MUL DUP4 MSTORE SWAP2 PUSH1 0x20 ADD SWAP2 PUSH2 0x7A6 JUMP JUMPDEST DUP3 ADD SWAP2 SWAP1 PUSH1 0x0 MSTORE PUSH1 0x20 PUSH1 0x0 KECCAK256 SWAP1 JUMPDEST DUP2 SLOAD DUP2 MSTORE SWAP1 PUSH1 0x1 ADD SWAP1 PUSH1 0x20 ADD DUP1 DUP4 GT PUSH2 0x789 JUMPI DUP3 SWAP1 SUB PUSH1 0x1F AND DUP3 ADD SWAP2 JUMPDEST POP POP POP POP POP SWAP1 POP DUP3 JUMP JUMPDEST PUSH1 0x0 PUSH1 0x1 DUP3 PUSH1 0x40 MLOAD PUSH2 0x7C2 SWAP2 SWAP1 PUSH2 0xCAD JUMP JUMPDEST SWAP1 DUP2 MSTORE PUSH1 0x20 ADD PUSH1 0x40 MLOAD DUP1 SWAP2 SUB SWAP1 KECCAK256 PUSH1 0x0 ADD DUP1 SLOAD PUSH2 0x7DE SWAP1 PUSH2 0xE0E JUMP JUMPDEST DUP1 PUSH1 0x1F ADD PUSH1 0x20 DUP1 SWAP2 DIV MUL PUSH1 0x20 ADD PUSH1 0x40 MLOAD SWAP1 DUP2 ADD PUSH1 0x40 MSTORE DUP1 SWAP3 SWAP2 SWAP1 DUP2 DUP2 MSTORE PUSH1 0x20 ADD DUP3 DUP1 SLOAD PUSH2 0x80A SWAP1 PUSH2 0xE0E JUMP JUMPDEST DUP1 ISZERO PUSH2 0x857 JUMPI DUP1 PUSH1 0x1F LT PUSH2 0x82C JUMPI PUSH2 0x100 DUP1 DUP4 SLOAD DIV MUL DUP4 MSTORE SWAP2 PUSH1 0x20 ADD SWAP2 PUSH2 0x857 JUMP JUMPDEST DUP3 ADD SWAP2 SWAP1 PUSH1 0x0 MSTORE PUSH1 0x20 PUSH1 0x0 KECCAK256 SWAP1 JUMPDEST DUP2 SLOAD DUP2 MSTORE SWAP1 PUSH1 0x1 ADD SWAP1 PUSH1 0x20 ADD DUP1 DUP4 GT PUSH2 0x83A JUMPI DUP3 SWAP1 SUB PUSH1 0x1F AND DUP3 ADD SWAP2 JUMPDEST POP POP POP POP POP SWAP1 POP PUSH1 0x0 PUSH1 0x1 DUP4 PUSH1 0x40 MLOAD PUSH2 0x870 SWAP2 SWAP1 PUSH2 0xCAD JUMP JUMPDEST SWAP1 DUP2 MSTORE PUSH1 0x20 ADD PUSH1 0x40 MLOAD DUP1 SWAP2 SUB SWAP1 KECCAK256 PUSH1 0x1 ADD DUP1 SLOAD PUSH2 0x88C SWAP1 PUSH2 0xE0E JUMP JUMPDEST DUP1 PUSH1 0x1F ADD PUSH1 0x20 DUP1 SWAP2 DIV MUL PUSH1 0x20 ADD PUSH1 0x40 MLOAD SWAP1 DUP2 ADD PUSH1 0x40 MSTORE DUP1 SWAP3 SWAP2 SWAP1 DUP2 DUP2 MSTORE PUSH1 0x20 ADD DUP3 DUP1 SLOAD PUSH2 0x8B8 SWAP1 PUSH2 0xE0E JUMP JUMPDEST DUP1 ISZERO PUSH2 0x905 JUMPI DUP1 PUSH1 0x1F LT PUSH2 0x8DA JUMPI PUSH2 0x100 DUP1 DUP4 SLOAD DIV MUL DUP4 MSTORE SWAP2 PUSH1 0x20 ADD SWAP2 PUSH2 0x905 JUMP JUMPDEST DUP3 ADD SWAP2 SWAP1 PUSH1 0x0 MSTORE PUSH1 0x20 PUSH1 0x0 KECCAK256 SWAP1 JUMPDEST DUP2 SLOAD DUP2 MSTORE SWAP1 PUSH1 0x1 ADD SWAP1 PUSH1 0x20 ADD DUP1 DUP4 GT PUSH2 0x8E8 JUMPI DUP3 SWAP1 SUB PUSH1 0x1F AND DUP3 ADD SWAP2 JUMPDEST POP POP POP POP POP SWAP1 POP PUSH1 0x40 MLOAD DUP1 PUSH1 0x40 ADD PUSH1 0x40 MSTORE DUP1 DUP4 DUP2 MSTORE PUSH1 0x20 ADD DUP3 DUP2 MSTORE POP PUSH1 0x2 PUSH1 0x0 DUP7 DUP2 MSTORE PUSH1 0x20 ADD SWAP1 DUP2 MSTORE PUSH1 0x20 ADD PUSH1 0x0 KECCAK256 DUP5 PUSH1 0x40 MLOAD PUSH2 0x942 SWAP2 SWAP1 PUSH2 0xCAD JUMP JUMPDEST SWAP1 DUP2 MSTORE PUSH1 0x20 ADD PUSH1 0x40 MLOAD DUP1 SWAP2 SUB SWAP1 KECCAK256 PUSH1 0x0 DUP3 ADD MLOAD DUP2 PUSH1 0x0 ADD SWAP1 DUP1 MLOAD SWAP1 PUSH1 0x20 ADD SWAP1 PUSH2 0x96C SWAP3 SWAP2 SWAP1 PUSH2 0x993 JUMP JUMPDEST POP PUSH1 0x20 DUP3 ADD MLOAD DUP2 PUSH1 0x1 ADD SWAP1 DUP1 MLOAD SWAP1 PUSH1 0x20 ADD SWAP1 PUSH2 0x989 SWAP3 SWAP2 SWAP1 PUSH2 0x993 JUMP JUMPDEST POP SWAP1 POP POP POP POP POP POP JUMP JUMPDEST DUP3 DUP1 SLOAD PUSH2 0x99F SWAP1 PUSH2 0xE0E JUMP JUMPDEST SWAP1 PUSH1 0x0 MSTORE PUSH1 0x20 PUSH1 0x0 KECCAK256 SWAP1 PUSH1 0x1F ADD PUSH1 0x20 SWAP1 DIV DUP2 ADD SWAP3 DUP3 PUSH2 0x9C1 JUMPI PUSH1 0x0 DUP6 SSTORE PUSH2 0xA08 JUMP JUMPDEST DUP3 PUSH1 0x1F LT PUSH2 0x9DA JUMPI DUP1 MLOAD PUSH1 0xFF NOT AND DUP4 DUP1 ADD OR DUP6 SSTORE PUSH2 0xA08 JUMP JUMPDEST DUP3 DUP1 ADD PUSH1 0x1 ADD DUP6 SSTORE DUP3 ISZERO PUSH2 0xA08 JUMPI SWAP2 DUP3 ADD JUMPDEST DUP3 DUP2 GT ISZERO PUSH2 0xA07 JUMPI DUP3 MLOAD DUP3 SSTORE SWAP2 PUSH1 0x20 ADD SWAP2 SWAP1 PUSH1 0x1 ADD SWAP1 PUSH2 0x9EC JUMP JUMPDEST JUMPDEST POP SWAP1 POP PUSH2 0xA15 SWAP2 SWAP1 PUSH2 0xA19 JUMP JUMPDEST POP SWAP1 JUMP JUMPDEST JUMPDEST DUP1 DUP3 GT ISZERO PUSH2 0xA32 JUMPI PUSH1 0x0 DUP2 PUSH1 0x0 SWAP1 SSTORE POP PUSH1 0x1 ADD PUSH2 0xA1A JUMP JUMPDEST POP SWAP1 JUMP JUMPDEST PUSH1 0x0 PUSH2 0xA49 PUSH2 0xA44 DUP5 PUSH2 0xD5D JUMP JUMPDEST PUSH2 0xD38 JUMP JUMPDEST SWAP1 POP DUP3 DUP2 MSTORE PUSH1 0x20 DUP2 ADD DUP5 DUP5 DUP5 ADD GT ISZERO PUSH2 0xA65 JUMPI PUSH2 0xA64 PUSH2 0xF5C JUMP JUMPDEST JUMPDEST PUSH2 0xA70 DUP5 DUP3 DUP6 PUSH2 0xDCC JUMP JUMPDEST POP SWAP4 SWAP3 POP POP POP JUMP JUMPDEST PUSH1 0x0 DUP3 PUSH1 0x1F DUP4 ADD SLT PUSH2 0xA8D JUMPI PUSH2 0xA8C PUSH2 0xF57 JUMP JUMPDEST JUMPDEST DUP2 CALLDATALOAD PUSH2 0xA9D DUP5 DUP3 PUSH1 0x20 DUP7 ADD PUSH2 0xA36 JUMP JUMPDEST SWAP2 POP POP SWAP3 SWAP2 POP POP JUMP JUMPDEST PUSH1 0x0 DUP2 CALLDATALOAD SWAP1 POP PUSH2 0xAB5 DUP2 PUSH2 0xF7C JUMP JUMPDEST SWAP3 SWAP2 POP POP JUMP JUMPDEST PUSH1 0x0 PUSH1 0x20 DUP3 DUP5 SUB SLT ISZERO PUSH2 0xAD1 JUMPI PUSH2 0xAD0 PUSH2 0xF66 JUMP JUMPDEST JUMPDEST PUSH1 0x0 DUP3 ADD CALLDATALOAD PUSH8 0xFFFFFFFFFFFFFFFF DUP2 GT ISZERO PUSH2 0xAEF JUMPI PUSH2 0xAEE PUSH2 0xF61 JUMP JUMPDEST JUMPDEST PUSH2 0xAFB DUP5 DUP3 DUP6 ADD PUSH2 0xA78 JUMP JUMPDEST SWAP2 POP POP SWAP3 SWAP2 POP POP JUMP JUMPDEST PUSH1 0x0 DUP1 PUSH1 0x0 PUSH1 0x60 DUP5 DUP7 SUB SLT ISZERO PUSH2 0xB1D JUMPI PUSH2 0xB1C PUSH2 0xF66 JUMP JUMPDEST JUMPDEST PUSH1 0x0 DUP5 ADD CALLDATALOAD PUSH8 0xFFFFFFFFFFFFFFFF DUP2 GT ISZERO PUSH2 0xB3B JUMPI PUSH2 0xB3A PUSH2 0xF61 JUMP JUMPDEST JUMPDEST PUSH2 0xB47 DUP7 DUP3 DUP8 ADD PUSH2 0xA78 JUMP JUMPDEST SWAP4 POP POP PUSH1 0x20 DUP5 ADD CALLDATALOAD PUSH8 0xFFFFFFFFFFFFFFFF DUP2 GT ISZERO PUSH2 0xB68 JUMPI PUSH2 0xB67 PUSH2 0xF61 JUMP JUMPDEST JUMPDEST PUSH2 0xB74 DUP7 DUP3 DUP8 ADD PUSH2 0xA78 JUMP JUMPDEST SWAP3 POP POP PUSH1 0x40 DUP5 ADD CALLDATALOAD PUSH8 0xFFFFFFFFFFFFFFFF DUP2 GT ISZERO PUSH2 0xB95 JUMPI PUSH2 0xB94 PUSH2 0xF61 JUMP JUMPDEST JUMPDEST PUSH2 0xBA1 DUP7 DUP3 DUP8 ADD PUSH2 0xA78 JUMP JUMPDEST SWAP2 POP POP SWAP3 POP SWAP3 POP SWAP3 JUMP JUMPDEST PUSH1 0x0 PUSH1 0x20 DUP3 DUP5 SUB SLT ISZERO PUSH2 0xBC1 JUMPI PUSH2 0xBC0 PUSH2 0xF66 JUMP JUMPDEST JUMPDEST PUSH1 0x0 PUSH2 0xBCF DUP5 DUP3 DUP6 ADD PUSH2 0xAA6 JUMP JUMPDEST SWAP2 POP POP SWAP3 SWAP2 POP POP JUMP JUMPDEST PUSH1 0x0 DUP1 PUSH1 0x40 DUP4 DUP6 SUB SLT ISZERO PUSH2 0xBEF JUMPI PUSH2 0xBEE PUSH2 0xF66 JUMP JUMPDEST JUMPDEST PUSH1 0x0 PUSH2 0xBFD DUP6 DUP3 DUP7 ADD PUSH2 0xAA6 JUMP JUMPDEST SWAP3 POP POP PUSH1 0x20 DUP4 ADD CALLDATALOAD PUSH8 0xFFFFFFFFFFFFFFFF DUP2 GT ISZERO PUSH2 0xC1E JUMPI PUSH2 0xC1D PUSH2 0xF61 JUMP JUMPDEST JUMPDEST PUSH2 0xC2A DUP6 DUP3 DUP7 ADD PUSH2 0xA78 JUMP JUMPDEST SWAP2 POP POP SWAP3 POP SWAP3 SWAP1 POP JUMP JUMPDEST PUSH1 0x0 PUSH2 0xC3F DUP3 PUSH2 0xD8E JUMP JUMPDEST PUSH2 0xC49 DUP2 DUP6 PUSH2 0xD99 JUMP JUMPDEST SWAP4 POP PUSH2 0xC59 DUP2 DUP6 PUSH1 0x20 DUP7 ADD PUSH2 0xDDB JUMP JUMPDEST PUSH2 0xC62 DUP2 PUSH2 0xF6B JUMP JUMPDEST DUP5 ADD SWAP2 POP POP SWAP3 SWAP2 POP POP JUMP JUMPDEST PUSH1 0x0 PUSH2 0xC78 DUP3 PUSH2 0xD8E JUMP JUMPDEST PUSH2 0xC82 DUP2 DUP6 PUSH2 0xDAA JUMP JUMPDEST SWAP4 POP PUSH2 0xC92 DUP2 DUP6 PUSH1 0x20 DUP7 ADD PUSH2 0xDDB JUMP JUMPDEST DUP1 DUP5 ADD SWAP2 POP POP SWAP3 SWAP2 POP POP JUMP JUMPDEST PUSH2 0xCA7 DUP2 PUSH2 0xDBF JUMP JUMPDEST DUP3 MSTORE POP POP JUMP JUMPDEST PUSH1 0x0 PUSH2 0xCB9 DUP3 DUP5 PUSH2 0xC6D JUMP JUMPDEST SWAP2 POP DUP2 SWAP1 POP SWAP3 SWAP2 POP POP JUMP JUMPDEST PUSH1 0x0 PUSH1 0x20 DUP3 ADD SWAP1 POP DUP2 DUP2 SUB PUSH1 0x0 DUP4 ADD MSTORE PUSH2 0xCDE DUP2 DUP5 PUSH2 0xC34 JUMP JUMPDEST SWAP1 POP SWAP3 SWAP2 POP POP JUMP JUMPDEST PUSH1 0x0 PUSH1 0x40 DUP3 ADD SWAP1 POP DUP2 DUP2 SUB PUSH1 0x0 DUP4 ADD MSTORE PUSH2 0xD00 DUP2 DUP6 PUSH2 0xC34 JUMP JUMPDEST SWAP1 POP DUP2 DUP2 SUB PUSH1 0x20 DUP4 ADD MSTORE PUSH2 0xD14 DUP2 DUP5 PUSH2 0xC34 JUMP JUMPDEST SWAP1 POP SWAP4 SWAP3 POP POP POP JUMP JUMPDEST PUSH1 0x0 PUSH1 0x20 DUP3 ADD SWAP1 POP PUSH2 0xD32 PUSH1 0x0 DUP4 ADD DUP5 PUSH2 0xC9E JUMP JUMPDEST SWAP3 SWAP2 POP POP JUMP JUMPDEST PUSH1 0x0 PUSH2 0xD42 PUSH2 0xD53 JUMP JUMPDEST SWAP1 POP PUSH2 0xD4E DUP3 DUP3 PUSH2 0xE40 JUMP JUMPDEST SWAP2 SWAP1 POP JUMP JUMPDEST PUSH1 0x0 PUSH1 0x40 MLOAD SWAP1 POP SWAP1 JUMP JUMPDEST PUSH1 0x0 PUSH8 0xFFFFFFFFFFFFFFFF DUP3 GT ISZERO PUSH2 0xD78 JUMPI PUSH2 0xD77 PUSH2 0xF28 JUMP JUMPDEST JUMPDEST PUSH2 0xD81 DUP3 PUSH2 0xF6B JUMP JUMPDEST SWAP1 POP PUSH1 0x20 DUP2 ADD SWAP1 POP SWAP2 SWAP1 POP JUMP JUMPDEST PUSH1 0x0 DUP2 MLOAD SWAP1 POP SWAP2 SWAP1 POP JUMP JUMPDEST PUSH1 0x0 DUP3 DUP3 MSTORE PUSH1 0x20 DUP3 ADD SWAP1 POP SWAP3 SWAP2 POP POP JUMP JUMPDEST PUSH1 0x0 DUP2 SWAP1 POP SWAP3 SWAP2 POP POP JUMP JUMPDEST PUSH1 0x0 DUP2 SWAP1 POP SWAP2 SWAP1 POP JUMP JUMPDEST PUSH1 0x0 PUSH1 0xFF DUP3 AND SWAP1 POP SWAP2 SWAP1 POP JUMP JUMPDEST DUP3 DUP2 DUP4 CALLDATACOPY PUSH1 0x0 DUP4 DUP4 ADD MSTORE POP POP POP JUMP JUMPDEST PUSH1 0x0 JUMPDEST DUP4 DUP2 LT ISZERO PUSH2 0xDF9 JUMPI DUP1 DUP3 ADD MLOAD DUP2 DUP5 ADD MSTORE PUSH1 0x20 DUP2 ADD SWAP1 POP PUSH2 0xDDE JUMP JUMPDEST DUP4 DUP2 GT ISZERO PUSH2 0xE08 JUMPI PUSH1 0x0 DUP5 DUP5 ADD MSTORE JUMPDEST POP POP POP POP JUMP JUMPDEST PUSH1 0x0 PUSH1 0x2 DUP3 DIV SWAP1 POP PUSH1 0x1 DUP3 AND DUP1 PUSH2 0xE26 JUMPI PUSH1 0x7F DUP3 AND SWAP2 POP JUMPDEST PUSH1 0x20 DUP3 LT DUP2 EQ ISZERO PUSH2 0xE3A JUMPI PUSH2 0xE39 PUSH2 0xECA JUMP JUMPDEST JUMPDEST POP SWAP2 SWAP1 POP JUMP JUMPDEST PUSH2 0xE49 DUP3 PUSH2 0xF6B JUMP JUMPDEST DUP2 ADD DUP2 DUP2 LT PUSH8 0xFFFFFFFFFFFFFFFF DUP3 GT OR ISZERO PUSH2 0xE68 JUMPI PUSH2 0xE67 PUSH2 0xF28 JUMP JUMPDEST JUMPDEST DUP1 PUSH1 0x40 MSTORE POP POP POP JUMP JUMPDEST PUSH1 0x0 PUSH2 0xE7C DUP3 PUSH2 0xDBF JUMP JUMPDEST SWAP2 POP PUSH1 0xFF DUP3 EQ ISZERO PUSH2 0xE90 JUMPI PUSH2 0xE8F PUSH2 0xE9B JUMP JUMPDEST JUMPDEST PUSH1 0x1 DUP3 ADD SWAP1 POP SWAP2 SWAP1 POP JUMP JUMPDEST PUSH32 0x4E487B7100000000000000000000000000000000000000000000000000000000 PUSH1 0x0 MSTORE PUSH1 0x11 PUSH1 0x4 MSTORE PUSH1 0x24 PUSH1 0x0 REVERT JUMPDEST PUSH32 0x4E487B7100000000000000000000000000000000000000000000000000000000 PUSH1 0x0 MSTORE PUSH1 0x22 PUSH1 0x4 MSTORE PUSH1 0x24 PUSH1 0x0 REVERT JUMPDEST PUSH32 0x4E487B7100000000000000000000000000000000000000000000000000000000 PUSH1 0x0 MSTORE PUSH1 0x32 PUSH1 0x4 MSTORE PUSH1 0x24 PUSH1 0x0 REVERT JUMPDEST PUSH32 0x4E487B7100000000000000000000000000000000000000000000000000000000 PUSH1 0x0 MSTORE PUSH1 0x41 PUSH1 0x4 MSTORE PUSH1 0x24 PUSH1 0x0 REVERT JUMPDEST PUSH1 0x0 DUP1 REVERT JUMPDEST PUSH1 0x0 DUP1 REVERT JUMPDEST PUSH1 0x0 DUP1 REVERT JUMPDEST PUSH1 0x0 DUP1 REVERT JUMPDEST PUSH1 0x0 PUSH1 0x1F NOT PUSH1 0x1F DUP4 ADD AND SWAP1 POP SWAP2 SWAP1 POP JUMP JUMPDEST PUSH2 0xF85 DUP2 PUSH2 0xDB5 JUMP JUMPDEST DUP2 EQ PUSH2 0xF90 JUMPI PUSH1 0x0 DUP1 REVERT JUMPDEST POP JUMP INVALID LOG2 PUSH5 0x6970667358 0x22 SLT KECCAK256 0xCA GASLIMIT PUSH23 0xF6B05191F2B7557DCC61EF461F12C42D0919E46A3F5905 DUP11 0xD4 PUSH13 0x858CC964736F6C634300080700 CALLER "
				},
				"gasEstimates": {
					"creation": {
						"codeDepositCost": "808200",
						"executionCost": "infinite",
						"totalCost": "infinite"
					},
					"external": {
						"EmployeeData(uint256,string)": "infinite",
						"WikiDLT()": "infinite",
						"addDatabase(uint256,string)": "infinite",
						"addEmployee(string,string,string)": "infinite",
						"arr(uint256)": "4454",
						"company(string)": "infinite",
						"loop()": "infinite",
						"names(uint256)": "infinite"
					}
				},
				"methodIdentifiers": {
					"EmployeeData(uint256,string)": "0c1770a4",
					"WikiDLT()": "7ae431fd",
					"addDatabase(uint256,string)": "ef5abff7",
					"addEmployee(string,string,string)": "0acf70ac",
					"arr(uint256)": "71e5ee5f",
					"company(string)": "cfbdc519",
					"loop()": "a92100cb",
					"names(uint256)": "4622ab03"
				}
			},
			"storageLayout": {
				"storage": [
					{
						"astId": 10,
						"contract": "contracts/FirstContract.sol:FirstContract",
						"label": "names",
						"offset": 0,
						"slot": "0",
						"type": "t_mapping(t_uint256,t_string_storage)"
					},
					{
						"astId": 15,
						"contract": "contracts/FirstContract.sol:FirstContract",
						"label": "company",
						"offset": 0,
						"slot": "1",
						"type": "t_mapping(t_string_memory_ptr,t_struct(Webmob)6_storage)"
					},
					{
						"astId": 22,
						"contract": "contracts/FirstContract.sol:FirstContract",
						"label": "EmployeeData",
						"offset": 0,
						"slot": "2",
						"type": "t_mapping(t_uint256,t_mapping(t_string_memory_ptr,t_struct(Webmob)6_storage))"
					},
					{
						"astId": 24,
						"contract": "contracts/FirstContract.sol:FirstContract",
						"label": "count",
						"offset": 0,
						"slot": "3",
						"type": "t_uint8"
					},
					{
						"astId": 28,
						"contract": "contracts/FirstContract.sol:FirstContract",
						"label": "arr",
						"offset": 0,
						"slot": "4",
						"type": "t_array(t_uint8)3_storage"
					},
					{
						"astId": 31,
						"contract": "contracts/FirstContract.sol:FirstContract",
						"label": "WikiDLT",
						"offset": 0,
						"slot": "5",
						"type": "t_struct(Webmob)6_storage"
					}
				],
				"types": {
					"t_array(t_uint8)3_storage": {
						"base": "t_uint8",
						"encoding": "inplace",
						"label": "uint8[3]",
						"numberOfBytes": "32"
					},
					"t_mapping(t_string_memory_ptr,t_struct(Webmob)6_storage)": {
						"encoding": "mapping",
						"key": "t_string_memory_ptr",
						"label": "mapping(string => struct FirstContract.Webmob)",
						"numberOfBytes": "32",
						"value": "t_struct(Webmob)6_storage"
					},
					"t_mapping(t_uint256,t_mapping(t_string_memory_ptr,t_struct(Webmob)6_storage))": {
						"encoding": "mapping",
						"key": "t_uint256",
						"label": "mapping(uint256 => mapping(string => struct FirstContract.Webmob))",
						"numberOfBytes": "32",
						"value": "t_mapping(t_string_memory_ptr,t_struct(Webmob)6_storage)"
					},
					"t_mapping(t_uint256,t_string_storage)": {
						"encoding": "mapping",
						"key": "t_uint256",
						"label": "mapping(uint256 => string)",
						"numberOfBytes": "32",
						"value": "t_string_storage"
					},
					"t_string_memory_ptr": {
						"encoding": "bytes",
						"label": "string",
						"numberOfBytes": "32"
					},
					"t_string_storage": {
						"encoding": "bytes",
						"label": "string",
						"numberOfBytes": "32"
					},
					"t_struct(Webmob)6_storage": {
						"encoding": "inplace",
						"label": "struct FirstContract.Webmob",
						"members": [
							{
								"astId": 3,
								"contract": "contracts/FirstContract.sol:FirstContract",
								"label": "department",
								"offset": 0,
								"slot": "0",
								"type": "t_string_storage"
							},
							{
								"astId": 5,
								"contract": "contracts/FirstContract.sol:FirstContract",
								"label": "position",
								"offset": 0,
								"slot": "1",
								"type": "t_string_storage"
							}
						],
						"numberOfBytes": "64"
					},
					"t_uint256": {
						"encoding": "inplace",
						"label": "uint256",
						"numberOfBytes": "32"
					},
					"t_uint8": {
						"encoding": "inplace",
						"label": "uint8",
						"numberOfBytes": "1"
					}
				}
			},
			"userdoc": {
				"kind": "user",
				"methods": {},
				"version": 1
			}
		}
	}
}